8=FIX.4.2|9=69|35=A|34=1|49=Y48|52=20110427-10:10:37.314|56=INORD|98=0|108=60|141=Y|10=105|
8=FIX.4.2|9=69|35=A|34=1|49=Y48|52=20110427-10:11:07.311|56=INORD|98=0|108=60|141=Y|10=100|
8=FIX.4.2|9=69|35=A|34=1|49=Y48|52=20110427-10:12:20.195|56=INORD|98=0|108=60|141=Y|10=106|
8=FIX.4.2|9=69|35=A|34=1|49=Y48|52=20110427-10:22:29.259|56=INORD|98=0|108=60|141=Y|10=117|
8=FIX.4.2|9=69|35=A|34=1|49=Y48|52=20110427-10:22:59.257|56=INORD|98=0|108=60|141=Y|10=118|
8=FIX.4.2|9=69|35=A|34=1|49=Y48|52=20110427-10:23:29.251|56=INORD|98=0|108=60|141=Y|10=110|
8=FIX.4.2|9=69|35=A|34=1|49=Y48|52=20110427-10:23:59.252|56=INORD|98=0|108=60|141=Y|10=114|
8=FIX.4.2|9=69|35=A|34=1|49=Y48|52=20110427-10:24:29.258|56=INORD|98=0|108=60|141=Y|10=118|
8=FIX.4.2|9=69|35=A|34=1|49=Y48|52=20110427-10:24:59.252|56=INORD|98=0|108=60|141=Y|10=115|
8=FIX.4.2|9=69|35=A|34=1|49=Y48|52=20110427-10:25:29.293|56=INORD|98=0|108=60|141=Y|10=118|
8=FIX.4.2|9=69|35=A|34=1|49=Y48|52=20110427-10:25:59.257|56=INORD|98=0|108=60|141=Y|10=121|
8=FIX.4.2|9=0065|35=A|34=1|52=20110427-10:26:30|49=INORD|56=Y48|141=Y|98=0|108=60|10=255|
8=FIX.4.2|9=69|35=A|34=1|49=Y48|52=20110427-10:26:34.472|56=INORD|98=0|108=60|141=Y|10=114|
8=FIX.4.2|9=0065|35=A|34=1|52=20110427-10:27:06|49=INORD|56=Y48|141=Y|98=0|108=60|10=003|
8=FIX.4.2|9=51|35=0|34=2|49=Y48|52=20110427-10:27:34.797|56=INORD|10=027|
8=FIX.4.2|9=0047|35=0|34=2|52=20110427-10:28:06|49=INORD|56=Y48|10=171|
8=FIX.4.2|9=51|35=0|34=3|49=Y48|52=20110427-10:28:34.979|56=INORD|10=031|
8=FIX.4.2|9=0047|35=0|34=3|52=20110427-10:29:06|49=INORD|56=Y48|10=173|
8=FIX.4.2|9=51|35=0|34=4|49=Y48|52=20110427-10:29:34.098|56=INORD|10=025|
8=FIX.4.2|9=0047|35=0|34=4|52=20110427-10:30:05|49=INORD|56=Y48|10=165|
8=FIX.4.2|9=51|35=0|34=5|49=Y48|52=20110427-10:30:34.241|56=INORD|10=008|
8=FIX.4.2|9=0047|35=0|34=5|52=20110427-10:31:05|49=INORD|56=Y48|10=167|
8=FIX.4.2|9=51|35=0|34=6|49=Y48|52=20110427-10:31:34.370|56=INORD|10=013|
8=FIX.4.2|9=0047|35=0|34=6|52=20110427-10:32:05|49=INORD|56=Y48|10=169|
8=FIX.4.2|9=69|35=A|34=1|49=Y48|52=20110427-10:37:00.452|56=INORD|98=0|108=60|141=Y|10=107|
8=FIX.4.2|9=0065|35=A|34=1|52=20110427-10:37:32|49=INORD|56=Y48|141=Y|98=0|108=60|10=003|
8=FIX.4.2|9=0291|35=8|34=2|52=20110427-10:37:47|49=INORD|50=S|56=Y48|57=TST814014|128=Y48|129=Y4801|6=0.0|11=15056900000027|14=0|15=ISK|17=GPCFD1-7475|18=N|20=0|37=7641|38=10000|39=0|40=2|44=50.0000|528=A|48=IS0000013464|54=1|55=37744|59=0|60=20110427-10:37:47|150=0|151=10000|9140=Y|5815=23|109=Y48|76=BOOK|10=133|
8=FIX.4.2|9=0184|35=8|34=3|52=20110427-10:37:47|49=INORD|50=S|56=Y48|57=TST814014|128=Y48|129=Y4801|6=0.0|11=15056900000027|14=0|17=0|20=0|37=7641|39=0|54=1|55=37744|150=D|151=0|109=Y48|378=8|198=8122|10=096|
8=FIX.4.2|9=0293|35=8|34=4|52=20110427-10:38:30|49=INORD|50=S|56=Y48|57=TST814014|128=Y48|129=Y4801|6=0.0|11=15056900000028|14=0|15=ISK|17=GPCFD1-7498|18=N|20=0|37=7664|38=100000|39=0|40=2|44=51.0000|528=A|48=IS0000013464|54=1|55=37744|59=0|60=20110427-10:38:30|150=0|151=100000|9140=Y|5815=23|109=Y48|76=BOOK|10=231|
8=FIX.4.2|9=0184|35=8|34=5|52=20110427-10:38:30|49=INORD|50=S|56=Y48|57=TST814014|128=Y48|129=Y4801|6=0.0|11=15056900000028|14=0|17=0|20=0|37=7664|39=0|54=1|55=37744|150=D|151=0|109=Y48|378=8|198=8139|10=105|
8=FIX.4.2|9=51|35=0|34=2|49=Y48|52=20110427-10:38:00.735|56=INORD|10=014|
8=FIX.4.2|9=0047|35=0|34=6|52=20110427-10:38:32|49=INORD|56=Y48|10=175|
8=FIX.4.2|9=0293|35=8|34=7|52=20110427-10:38:50|49=INORD|50=S|56=Y48|57=TST814014|128=Y48|129=Y4801|6=0.0|11=15056900000029|14=0|15=ISK|17=GPCFD1-7506|18=N|20=0|37=7672|38=100000|39=0|40=2|44=52.0000|528=A|48=IS0000013464|54=1|55=37744|59=0|60=20110427-10:38:50|150=0|151=100000|9140=Y|5815=23|109=Y48|76=BOOK|10=229|
8=FIX.4.2|9=0184|35=8|34=8|52=20110427-10:38:50|49=INORD|50=S|56=Y48|57=TST814014|128=Y48|129=Y4801|6=0.0|11=15056900000029|14=0|17=0|20=0|37=7672|39=0|54=1|55=37744|150=D|151=0|109=Y48|378=8|198=8143|10=105|
8=FIX.4.2|9=51|35=0|34=3|49=Y48|52=20110427-10:39:00.845|56=INORD|10=018|
8=FIX.4.2|9=0047|35=0|34=9|52=20110427-10:39:32|49=INORD|56=Y48|10=179|
8=FIX.4.2|9=51|35=0|34=4|49=Y48|52=20110427-10:40:00.961|56=INORD|10=010|
8=FIX.4.2|9=0048|35=0|34=10|52=20110427-10:40:32|49=INORD|56=Y48|10=212|
8=FIX.4.2|9=69|35=A|34=1|49=Y48|52=20110427-10:41:48.356|56=INORD|98=0|108=60|141=Y|10=117|
8=FIX.4.2|9=0065|35=A|34=1|52=20110427-10:42:20|49=INORD|56=Y48|141=Y|98=0|108=60|10=252|
8=FIX.4.2|9=0293|35=8|34=2|52=20110427-10:43:06|49=INORD|50=S|56=Y48|57=TST814014|128=Y48|129=Y4801|6=0.0|11=15056900000030|14=0|15=ISK|17=GPCFD1-7631|18=N|20=0|37=7804|38=100000|39=0|40=2|44=50.0000|528=A|48=IS0000013464|54=1|55=37744|59=0|60=20110427-10:43:06|150=0|151=100000|9140=Y|5815=23|109=Y48|76=BOOK|10=204|
8=FIX.4.2|9=0184|35=8|34=3|52=20110427-10:43:06|49=INORD|50=S|56=Y48|57=TST814014|128=Y48|129=Y4801|6=0.0|11=15056900000030|14=0|17=0|20=0|37=7804|39=0|54=1|55=37744|150=D|151=0|109=Y48|378=8|198=8233|10=086|
8=FIX.4.2|9=51|35=0|34=2|49=Y48|52=20110427-10:42:48.510|56=INORD|10=012|
8=FIX.4.2|9=0047|35=0|34=4|52=20110427-10:43:20|49=INORD|56=Y48|10=166|
8=FIX.4.2|9=0291|35=8|34=5|52=20110427-10:43:23|49=INORD|50=S|56=Y48|57=TST814014|128=Y48|129=Y4801|6=0.0|11=15056900000031|14=0|15=ISK|17=GPCFD1-7633|18=N|20=0|37=7806|38=10000|39=0|40=2|44=50.0000|528=A|48=IS0000013464|54=1|55=37744|59=0|60=20110427-10:43:23|150=0|151=10000|9140=Y|5815=23|109=Y48|76=BOOK|10=112|
8=FIX.4.2|9=0184|35=8|34=6|52=20110427-10:43:23|49=INORD|50=S|56=Y48|57=TST814014|128=Y48|129=Y4801|6=0.0|11=15056900000031|14=0|17=0|20=0|37=7806|39=0|54=1|55=37744|150=D|151=0|109=Y48|378=8|198=8235|10=093|
8=FIX.4.2|9=0293|35=8|34=7|52=20110427-10:43:29|49=INORD|50=S|56=Y48|57=TST814014|128=Y48|129=Y4801|6=0.0|11=15056900000032|14=0|15=ISK|17=GPCFD1-7635|18=N|20=0|37=7808|38=100000|39=0|40=2|44=50.0000|528=A|48=IS0000013464|54=1|55=37744|59=0|60=20110427-10:43:29|150=0|151=100000|9140=Y|5815=23|109=Y48|76=BOOK|10=229|
8=FIX.4.2|9=0184|35=8|34=8|52=20110427-10:43:29|49=INORD|50=S|56=Y48|57=TST814014|128=Y48|129=Y4801|6=0.0|11=15056900000032|14=0|17=0|20=0|37=7808|39=0|54=1|55=37744|150=D|151=0|109=Y48|378=8|198=8236|10=105|
8=FIX.4.2|9=0291|35=8|34=9|52=20110427-10:44:15|49=INORD|50=S|56=Y48|57=TST814014|128=Y48|129=Y4801|6=0.0|11=15056900000033|14=0|15=ISK|17=GPCFD1-7687|18=N|20=0|37=7842|38=10000|39=0|40=2|44=50.0000|528=A|48=IS0000013464|54=1|55=37744|59=0|60=20110427-10:44:15|150=0|151=10000|9140=Y|5815=23|109=Y48|76=BOOK|10=131|
8=FIX.4.2|9=51|35=0|34=3|49=Y48|52=20110427-10:44:34.741|56=INORD|10=016|
8=FIX.4.2|9=0185|35=8|34=10|52=20110427-10:44:15|49=INORD|50=S|56=Y48|57=TST814014|128=Y48|129=Y4801|6=0.0|11=15056900000033|14=0|17=0|20=0|37=7842|39=0|54=1|55=37744|150=D|151=0|109=Y48|378=8|198=8253|10=141|
8=FIX.4.2|9=0048|35=0|34=11|52=20110427-10:45:06|49=INORD|56=Y48|10=219|
8=FIX.4.2|9=0292|35=8|34=12|52=20110427-10:45:14|49=INORD|50=S|56=Y48|57=TST814014|128=Y48|129=Y4801|6=0.0|11=15056900000034|14=0|15=ISK|17=GPCFD1-7734|18=N|20=0|37=7889|38=10000|39=0|40=2|44=50.0000|528=A|48=IS0000013464|54=1|55=37744|59=0|60=20110427-10:45:14|150=0|151=10000|9140=Y|5815=23|109=Y48|76=BOOK|10=179|
8=FIX.4.2|9=0185|35=8|34=13|52=20110427-10:45:14|49=INORD|50=S|56=Y48|57=TST814014|128=Y48|129=Y4801|6=0.0|11=15056900000034|14=0|17=0|20=0|37=7889|39=0|54=1|55=37744|150=D|151=0|109=Y48|378=8|198=8286|10=162|
8=FIX.4.2|9=51|35=0|34=4|49=Y48|52=20110427-10:45:35.697|56=INORD|10=029|
8=FIX.4.2|9=0048|35=0|34=14|52=20110427-10:46:07|49=INORD|56=Y48|10=224|
8=FIX.4.2|9=0292|35=8|34=15|52=20110427-10:46:13|49=INORD|50=S|56=Y48|57=TST814014|128=Y48|129=Y4801|6=0.0|11=15056900000035|14=0|15=ISK|17=GPCFD1-7755|18=N|20=0|37=7915|38=10000|39=0|40=2|44=50.0000|528=A|48=IS0000013464|54=1|55=37744|59=0|60=20110427-10:46:13|150=0|151=10000|9140=Y|5815=23|109=Y48|76=BOOK|10=176|
8=FIX.4.2|9=0185|35=8|34=16|52=20110427-10:46:13|49=INORD|50=S|56=Y48|57=TST814014|128=Y48|129=Y4801|6=0.0|11=15056900000035|14=0|17=0|20=0|37=7915|39=0|54=1|55=37744|150=D|151=0|109=Y48|378=8|198=8299|10=160|
8=FIX.4.2|9=69|35=A|34=1|49=Y48|52=20110427-10:51:02.365|56=INORD|98=0|108=60|141=Y|10=108|
8=FIX.4.2|9=0065|35=A|34=1|52=20110427-10:51:34|49=INORD|56=Y48|141=Y|98=0|108=60|10=001|
8=FIX.4.2|9=0293|35=8|34=2|52=20110427-10:51:41|49=INORD|50=S|56=Y48|57=TST814014|128=Y48|129=Y4801|6=0.0|11=15056900000036|14=0|15=ISK|17=GPCFD1-7863|18=N|20=0|37=8033|38=100000|39=0|40=2|44=50.0000|528=A|48=IS0000013464|54=1|55=37744|59=0|60=20110427-10:51:41|150=0|151=100000|9140=Y|5815=23|109=Y48|76=BOOK|10=208|
8=FIX.4.2|9=0184|35=8|34=3|52=20110427-10:51:41|49=INORD|50=S|56=Y48|57=TST814014|128=Y48|129=Y4801|6=0.0|11=15056900000036|14=0|17=0|20=0|37=8033|39=0|54=1|55=37744|150=D|151=0|109=Y48|378=8|198=8383|10=091|
8=FIX.4.2|9=0293|35=8|34=4|52=20110427-10:52:14|49=INORD|50=S|56=Y48|57=TST814014|128=Y48|129=Y4801|6=0.0|11=15056900000037|14=0|15=ISK|17=GPCFD1-7877|18=N|20=0|37=8041|38=100000|39=0|40=2|44=50.0000|528=A|48=IS0000013464|54=1|55=37744|59=0|60=20110427-10:52:14|150=0|151=100000|9140=Y|5815=23|109=Y48|76=BOOK|10=217|
8=FIX.4.2|9=0184|35=8|34=5|52=20110427-10:52:14|49=INORD|50=S|56=Y48|57=TST814014|128=Y48|129=Y4801|6=0.0|11=15056900000037|14=0|17=0|20=0|37=8041|39=0|54=1|55=37744|150=D|151=0|109=Y48|378=8|198=8388|10=099|
8=FIX.4.2|9=51|35=0|34=2|49=Y48|52=20110427-10:52:02.719|56=INORD|10=014|
8=FIX.4.2|9=0047|35=0|34=6|52=20110427-10:52:34|49=INORD|56=Y48|10=173|
8=FIX.4.2|9=0293|35=8|34=7|52=20110427-10:52:34|49=INORD|50=S|56=Y48|57=TST814014|128=Y48|129=Y4801|6=0.0|11=15056900000038|14=0|15=ISK|17=GPCFD1-7891|18=N|20=0|37=8056|38=100000|39=0|40=2|44=50.0000|528=A|48=IS0000013464|54=1|55=37744|59=0|60=20110427-10:52:34|150=0|151=100000|9140=Y|5815=23|109=Y48|76=BOOK|10=227|
8=FIX.4.2|9=0184|35=8|34=8|52=20110427-10:52:34|49=INORD|50=S|56=Y48|57=TST814014|128=Y48|129=Y4801|6=0.0|11=15056900000038|14=0|17=0|20=0|37=8056|39=0|54=1|55=37744|150=D|151=0|109=Y48|378=8|198=8401|10=097|
8=FIX.4.2|9=0291|35=8|34=9|52=20110427-10:52:49|49=INORD|50=S|56=Y48|57=TST814014|128=Y48|129=Y4801|6=0.0|11=15056900000039|14=0|15=ISK|17=GPCFD1-7897|18=N|20=0|37=8061|38=10000|39=0|40=2|44=50.0000|528=A|48=IS0000013464|54=1|55=37744|59=0|60=20110427-10:52:49|150=0|151=10000|9140=Y|5815=23|109=Y48|76=BOOK|10=146|
8=FIX.4.2|9=0185|35=8|34=10|52=20110427-10:52:49|49=INORD|50=S|56=Y48|57=TST814014|128=Y48|129=Y4801|6=0.0|11=15056900000039|14=0|17=0|20=0|37=8061|39=0|54=1|55=37744|150=D|151=0|109=Y48|378=8|198=8404|10=145|
8=FIX.4.2|9=51|35=0|34=3|49=Y48|52=20110427-10:53:02.753|56=INORD|10=014|
8=FIX.4.2|9=0048|35=0|34=11|52=20110427-10:53:34|49=INORD|56=Y48|10=219|
8=FIX.4.2|9=0292|35=8|34=12|52=20110427-10:53:43|49=INORD|50=S|56=Y48|57=TST814014|128=Y48|129=Y4801|6=0.0|11=15056900000040|14=0|15=ISK|17=GPCFD1-7909|18=N|20=0|37=8070|38=10000|39=0|40=2|44=53.0000|528=A|48=IS0000013464|54=1|55=37744|59=0|60=20110427-10:53:42|150=0|151=10000|9140=Y|5815=23|109=Y48|76=BOOK|10=167|
8=FIX.4.2|9=0185|35=8|34=13|52=20110427-10:53:43|49=INORD|50=S|56=Y48|57=TST814014|128=Y48|129=Y4801|6=0.0|11=15056900000040|14=0|17=0|20=0|37=8070|39=0|54=1|55=37744|150=D|151=0|109=Y48|378=8|198=8412|10=134|
8=FIX.4.2|9=0292|35=8|34=14|52=20110427-10:53:55|49=INORD|50=S|56=Y48|57=TST814014|128=Y48|129=Y4801|6=0.0|11=15056900000041|14=0|15=ISK|17=GPCFD1-7913|18=N|20=0|37=8074|38=10000|39=0|40=2|44=50.0000|528=A|48=IS0000013464|54=1|55=37744|59=0|60=20110427-10:53:55|150=0|151=10000|9140=Y|5815=23|109=Y48|76=BOOK|10=173|
8=FIX.4.2|9=0185|35=8|34=15|52=20110427-10:53:55|49=INORD|50=S|56=Y48|57=TST814014|128=Y48|129=Y4801|6=0.0|11=15056900000041|14=0|17=0|20=0|37=8074|39=0|54=1|55=37744|150=D|151=0|109=Y48|378=8|198=8414|10=146|
8=FIX.4.2|9=0292|35=8|34=16|52=20110427-10:54:02|49=INORD|50=S|56=Y48|57=TST814014|128=Y48|129=Y4801|6=0.0|11=15056900000042|14=0|15=ISK|17=GPCFD1-7917|18=N|20=0|37=8078|38=10000|39=0|40=2|44=51.0000|528=A|48=IS0000013464|54=1|55=37744|59=0|60=20110427-10:54:02|150=0|151=10000|9140=Y|5815=23|109=Y48|76=BOOK|10=171|
8=FIX.4.2|9=0185|35=8|34=17|52=20110427-10:54:02|49=INORD|50=S|56=Y48|57=TST814014|128=Y48|129=Y4801|6=0.0|11=15056900000042|14=0|17=0|20=0|37=8078|39=0|54=1|55=37744|150=D|151=0|109=Y48|378=8|198=8416|10=148|
8=FIX.4.2|9=51|35=0|34=4|49=Y48|52=20110427-10:54:02.441|56=INORD|10=010|
8=FIX.4.2|9=0048|35=0|34=18|52=20110427-10:54:34|49=INORD|56=Y48|10=227|
8=FIX.4.2|9=51|35=0|34=5|49=Y48|52=20110427-10:55:02.552|56=INORD|10=015|
8=FIX.4.2|9=0048|35=0|34=19|52=20110427-10:55:34|49=INORD|56=Y48|10=229|
8=FIX.4.2|9=51|35=0|34=6|49=Y48|52=20110427-10:56:02.651|56=INORD|10=017|
8=FIX.4.2|9=0048|35=0|34=20|52=20110427-10:56:34|49=INORD|56=Y48|10=222|
8=FIX.4.2|9=51|35=0|34=7|49=Y48|52=20110427-10:57:02.750|56=INORD|10=019|
8=FIX.4.2|9=0048|35=0|34=21|52=20110427-10:57:34|49=INORD|56=Y48|10=224|
8=FIX.4.2|9=51|35=0|34=8|49=Y48|52=20110427-10:58:02.849|56=INORD|10=030|
8=FIX.4.2|9=0048|35=0|34=22|52=20110427-10:58:34|49=INORD|56=Y48|10=226|
8=FIX.4.2|9=51|35=0|34=9|49=Y48|52=20110427-10:59:02.952|56=INORD|10=027|
8=FIX.4.2|9=0048|35=0|34=23|52=20110427-10:59:34|49=INORD|56=Y48|10=228|
8=FIX.4.2|9=52|35=0|34=10|49=Y48|52=20110427-11:00:02.061|56=INORD|10=046|
8=FIX.4.2|9=0048|35=0|34=24|52=20110427-11:00:33|49=INORD|56=Y48|10=215|
8=FIX.4.2|9=52|35=0|34=11|49=Y48|52=20110427-11:01:02.164|56=INORD|10=052|
8=FIX.4.2|9=0048|35=0|34=25|52=20110427-11:01:33|49=INORD|56=Y48|10=217|
8=FIX.4.2|9=52|35=0|34=12|49=Y48|52=20110427-11:02:02.300|56=INORD|10=046|
8=FIX.4.2|9=0048|35=0|34=26|52=20110427-11:02:33|49=INORD|56=Y48|10=219|
8=FIX.4.2|9=52|35=0|34=13|49=Y48|52=20110427-11:03:02.432|56=INORD|10=054|
8=FIX.4.2|9=0048|35=0|34=27|52=20110427-11:03:33|49=INORD|56=Y48|10=221|
8=FIX.4.2|9=52|35=0|34=14|49=Y48|52=20110427-11:04:02.532|56=INORD|10=057|
8=FIX.4.2|9=0048|35=0|34=28|52=20110427-11:04:34|49=INORD|56=Y48|10=224|
8=FIX.4.2|9=52|35=0|34=15|49=Y48|52=20110427-11:05:02.632|56=INORD|10=060|
8=FIX.4.2|9=0048|35=0|34=29|52=20110427-11:05:34|49=INORD|56=Y48|10=226|
8=FIX.4.2|9=52|35=0|34=16|49=Y48|52=20110427-11:06:02.754|56=INORD|10=067|
8=FIX.4.2|9=0048|35=0|34=30|52=20110427-11:06:34|49=INORD|56=Y48|10=219|
8=FIX.4.2|9=52|35=0|34=17|49=Y48|52=20110427-11:07:02.869|56=INORD|10=076|
8=FIX.4.2|9=0048|35=0|34=31|52=20110427-11:07:34|49=INORD|56=Y48|10=221|
8=FIX.4.2|9=52|35=0|34=18|49=Y48|52=20110427-11:08:02.968|56=INORD|10=078|
8=FIX.4.2|9=0048|35=0|34=32|52=20110427-11:08:34|49=INORD|56=Y48|10=223|
8=FIX.4.2|9=52|35=0|34=19|49=Y48|52=20110427-11:09:02.068|56=INORD|10=071|
8=FIX.4.2|9=0048|35=0|34=33|52=20110427-11:09:33|49=INORD|56=Y48|10=224|
8=FIX.4.2|9=52|35=0|34=20|49=Y48|52=20110427-11:10:02.175|56=INORD|10=054|
8=FIX.4.2|9=0048|35=0|34=34|52=20110427-11:10:33|49=INORD|56=Y48|10=217|
8=FIX.4.2|9=52|35=0|34=21|49=Y48|52=20110427-11:11:02.278|56=INORD|10=060|
8=FIX.4.2|9=0048|35=0|34=35|52=20110427-11:11:33|49=INORD|56=Y48|10=219|
8=FIX.4.2|9=52|35=0|34=22|49=Y48|52=20110427-11:12:02.375|56=INORD|10=060|
8=FIX.4.2|9=0048|35=0|34=36|52=20110427-11:12:34|49=INORD|56=Y48|10=222|
8=FIX.4.2|9=52|35=0|34=23|49=Y48|52=20110427-11:13:02.471|56=INORD|10=059|
8=FIX.4.2|9=0048|35=0|34=37|52=20110427-11:13:34|49=INORD|56=Y48|10=224|
8=FIX.4.2|9=52|35=0|34=24|49=Y48|52=20110427-11:14:02.572|56=INORD|10=063|
8=FIX.4.2|9=0048|35=0|34=38|52=20110427-11:14:34|49=INORD|56=Y48|10=226|
8=FIX.4.2|9=52|35=0|34=25|49=Y48|52=20110427-11:15:02.675|56=INORD|10=069|
8=FIX.4.2|9=0048|35=0|34=39|52=20110427-11:15:34|49=INORD|56=Y48|10=228|
8=FIX.4.2|9=52|35=0|34=26|49=Y48|52=20110427-11:16:02.774|56=INORD|10=071|
8=FIX.4.2|9=0048|35=0|34=40|52=20110427-11:16:34|49=INORD|56=Y48|10=221|
8=FIX.4.2|9=52|35=0|34=27|49=Y48|52=20110427-11:17:02.875|56=INORD|10=075|
8=FIX.4.2|9=0048|35=0|34=41|52=20110427-11:17:34|49=INORD|56=Y48|10=223|
8=FIX.4.2|9=52|35=0|34=28|49=Y48|52=20110427-11:18:02.975|56=INORD|10=078|
8=FIX.4.2|9=0048|35=0|34=42|52=20110427-11:18:34|49=INORD|56=Y48|10=225|
8=FIX.4.2|9=52|35=0|34=29|49=Y48|52=20110427-11:19:02.074|56=INORD|10=070|
8=FIX.4.2|9=0048|35=0|34=43|52=20110427-11:19:34|49=INORD|56=Y48|10=227|
8=FIX.4.2|9=52|35=0|34=30|49=Y48|52=20110427-11:20:02.171|56=INORD|10=052|
8=FIX.4.2|9=0048|35=0|34=44|52=20110427-11:20:34|49=INORD|56=Y48|10=220|
8=FIX.4.2|9=52|35=0|34=31|49=Y48|52=20110427-11:21:02.271|56=INORD|10=055|
8=FIX.4.2|9=0048|35=0|34=45|52=20110427-11:21:34|49=INORD|56=Y48|10=222|
8=FIX.4.2|9=52|35=0|34=32|49=Y48|52=20110427-11:22:02.388|56=INORD|10=066|
8=FIX.4.2|9=0048|35=0|34=46|52=20110427-11:22:33|49=INORD|56=Y48|10=223|
8=FIX.4.2|9=52|35=0|34=33|49=Y48|52=20110427-11:23:02.533|56=INORD|10=060|
8=FIX.4.2|9=0048|35=0|34=47|52=20110427-11:23:34|49=INORD|56=Y48|10=226|
8=FIX.4.2|9=52|35=0|34=34|49=Y48|52=20110427-11:24:02.674|56=INORD|10=068|
8=FIX.4.2|9=0048|35=0|34=48|52=20110427-11:24:34|49=INORD|56=Y48|10=228|
8=FIX.4.2|9=52|35=0|34=35|49=Y48|52=20110427-11:25:02.813|56=INORD|10=065|
8=FIX.4.2|9=0048|35=0|34=49|52=20110427-11:25:34|49=INORD|56=Y48|10=230|
8=FIX.4.2|9=52|35=0|34=36|49=Y48|52=20110427-11:26:02.961|56=INORD|10=071|
8=FIX.4.2|9=0048|35=0|34=50|52=20110427-11:26:34|49=INORD|56=Y48|10=223|
8=FIX.4.2|9=52|35=0|34=37|49=Y48|52=20110427-11:27:02.166|56=INORD|10=070|
8=FIX.4.2|9=0048|35=0|34=51|52=20110427-11:27:33|49=INORD|56=Y48|10=224|
8=FIX.4.2|9=52|35=0|34=38|49=Y48|52=20110427-11:28:02.284|56=INORD|10=073|
8=FIX.4.2|9=0048|35=0|34=52|52=20110427-11:28:33|49=INORD|56=Y48|10=226|
8=FIX.4.2|9=52|35=0|34=39|49=Y48|52=20110427-11:29:02.413|56=INORD|10=069|
8=FIX.4.2|9=0048|35=0|34=53|52=20110427-11:29:33|49=INORD|56=Y48|10=228|
8=FIX.4.2|9=52|35=0|34=40|49=Y48|52=20110427-11:30:02.535|56=INORD|10=058|
8=FIX.4.2|9=0048|35=0|34=54|52=20110427-11:30:34|49=INORD|56=Y48|10=222|
8=FIX.4.2|9=52|35=0|34=41|49=Y48|52=20110427-11:31:02.662|56=INORD|10=061|
8=FIX.4.2|9=0048|35=0|34=55|52=20110427-11:31:34|49=INORD|56=Y48|10=224|
8=FIX.4.2|9=52|35=0|34=42|49=Y48|52=20110427-11:32:02.781|56=INORD|10=065|
8=FIX.4.2|9=0048|35=0|34=56|52=20110427-11:32:34|49=INORD|56=Y48|10=226|
8=FIX.4.2|9=52|35=0|34=43|49=Y48|52=20110427-11:33:02.895|56=INORD|10=073|
8=FIX.4.2|9=0048|35=0|34=57|52=20110427-11:33:34|49=INORD|56=Y48|10=228|
8=FIX.4.2|9=52|35=0|34=44|49=Y48|52=20110427-11:34:02.017|56=INORD|10=061|
8=FIX.4.2|9=0048|35=0|34=58|52=20110427-11:34:33|49=INORD|56=Y48|10=229|
8=FIX.4.2|9=52|35=0|34=45|49=Y48|52=20110427-11:35:02.144|56=INORD|10=064|
8=FIX.4.2|9=0048|35=0|34=59|52=20110427-11:35:33|49=INORD|56=Y48|10=231|
8=FIX.4.2|9=52|35=0|34=46|49=Y48|52=20110427-11:36:02.258|56=INORD|10=072|
8=FIX.4.2|9=0048|35=0|34=60|52=20110427-11:36:33|49=INORD|56=Y48|10=224|
8=FIX.4.2|9=52|35=0|34=47|49=Y48|52=20110427-11:37:02.459|56=INORD|10=077|
8=FIX.4.2|9=0048|35=0|34=61|52=20110427-11:37:33|49=INORD|56=Y48|10=226|
8=FIX.4.2|9=52|35=0|34=48|49=Y48|52=20110427-11:38:02.712|56=INORD|10=071|
8=FIX.4.2|9=0048|35=0|34=62|52=20110427-11:38:34|49=INORD|56=Y48|10=229|
8=FIX.4.2|9=52|35=0|34=49|49=Y48|52=20110427-11:39:02.828|56=INORD|10=081|
8=FIX.4.2|9=0048|35=0|34=63|52=20110427-11:39:34|49=INORD|56=Y48|10=231|
8=FIX.4.2|9=52|35=0|34=50|49=Y48|52=20110427-11:40:02.933|56=INORD|10=062|
8=FIX.4.2|9=0048|35=0|34=64|52=20110427-11:40:34|49=INORD|56=Y48|10=224|
8=FIX.4.2|9=52|35=0|34=51|49=Y48|52=20110427-11:41:02.038|56=INORD|10=060|
8=FIX.4.2|9=0048|35=0|34=65|52=20110427-11:41:33|49=INORD|56=Y48|10=225|
8=FIX.4.2|9=52|35=0|34=52|49=Y48|52=20110427-11:42:02.170|56=INORD|10=059|
8=FIX.4.2|9=0048|35=0|34=66|52=20110427-11:42:33|49=INORD|56=Y48|10=227|
8=FIX.4.2|9=52|35=0|34=53|49=Y48|52=20110427-11:43:02.274|56=INORD|10=066|
8=FIX.4.2|9=0048|35=0|34=67|52=20110427-11:43:33|49=INORD|56=Y48|10=229|
8=FIX.4.2|9=52|35=0|34=54|49=Y48|52=20110427-11:44:02.385|56=INORD|10=071|
8=FIX.4.2|9=0048|35=0|34=68|52=20110427-11:44:33|49=INORD|56=Y48|10=231|
8=FIX.4.2|9=52|35=0|34=55|49=Y48|52=20110427-11:45:02.488|56=INORD|10=077|
8=FIX.4.2|9=0048|35=0|34=69|52=20110427-11:45:33|49=INORD|56=Y48|10=233|
8=FIX.4.2|9=52|35=0|34=56|49=Y48|52=20110427-11:46:02.642|56=INORD|10=071|
8=FIX.4.2|9=0048|35=0|34=70|52=20110427-11:46:33|49=INORD|56=Y48|10=226|
8=FIX.4.2|9=52|35=0|34=57|49=Y48|52=20110427-11:47:02.771|56=INORD|10=076|
8=FIX.4.2|9=0048|35=0|34=71|52=20110427-11:47:34|49=INORD|56=Y48|10=229|
8=FIX.4.2|9=52|35=0|34=58|49=Y48|52=20110427-11:48:02.850|56=INORD|10=076|
8=FIX.4.2|9=0048|35=0|34=72|52=20110427-11:48:34|49=INORD|56=Y48|10=231|
8=FIX.4.2|9=52|35=0|34=59|49=Y48|52=20110427-11:49:02.947|56=INORD|10=085|
8=FIX.4.2|9=0048|35=0|34=73|52=20110427-11:49:34|49=INORD|56=Y48|10=233|
8=FIX.4.2|9=52|35=0|34=60|49=Y48|52=20110427-11:50:02.046|56=INORD|10=059|
8=FIX.4.2|9=0048|35=0|34=74|52=20110427-11:50:33|49=INORD|56=Y48|10=225|
8=FIX.4.2|9=52|35=0|34=61|49=Y48|52=20110427-11:51:02.172|56=INORD|10=061|
8=FIX.4.2|9=0048|35=0|34=75|52=20110427-11:51:33|49=INORD|56=Y48|10=227|
8=FIX.4.2|9=52|35=0|34=62|49=Y48|52=20110427-11:52:02.282|56=INORD|10=065|
8=FIX.4.2|9=0048|35=0|34=76|52=20110427-11:52:33|49=INORD|56=Y48|10=229|
8=FIX.4.2|9=52|35=0|34=63|49=Y48|52=20110427-11:53:02.382|56=INORD|10=068|
8=FIX.4.2|9=0048|35=0|34=77|52=20110427-11:53:33|49=INORD|56=Y48|10=231|
8=FIX.4.2|9=52|35=0|34=64|49=Y48|52=20110427-11:54:02.483|56=INORD|10=072|
8=FIX.4.2|9=0048|35=0|34=78|52=20110427-11:54:33|49=INORD|56=Y48|10=233|
8=FIX.4.2|9=52|35=0|34=65|49=Y48|52=20110427-11:55:02.641|56=INORD|10=070|
8=FIX.4.2|9=0048|35=0|34=79|52=20110427-11:55:34|49=INORD|56=Y48|10=236|
8=FIX.4.2|9=52|35=0|34=66|49=Y48|52=20110427-11:56:02.739|56=INORD|10=080|
8=FIX.4.2|9=0048|35=0|34=80|52=20110427-11:56:34|49=INORD|56=Y48|10=229|
8=FIX.4.2|9=52|35=0|34=67|49=Y48|52=20110427-11:57:02.859|56=INORD|10=085|
8=FIX.4.2|9=0048|35=0|34=81|52=20110427-11:57:34|49=INORD|56=Y48|10=231|
8=FIX.4.2|9=52|35=0|34=68|49=Y48|52=20110427-11:58:02.970|56=INORD|10=081|
8=FIX.4.2|9=0048|35=0|34=82|52=20110427-11:58:34|49=INORD|56=Y48|10=233|
8=FIX.4.2|9=52|35=0|34=69|49=Y48|52=20110427-11:59:02.084|56=INORD|10=079|
8=FIX.4.2|9=0048|35=0|34=83|52=20110427-11:59:33|49=INORD|56=Y48|10=234|
8=FIX.4.2|9=0292|35=8|34=84|52=20110427-12:00:12|49=INORD|50=S|56=Y48|57=TST814014|128=Y48|129=Y4801|6=0.0|11=15056900000051|14=0|15=ISK|17=GPCFD1-9963|18=N|20=0|37=9723|38=10000|39=0|40=2|44=50.0000|528=A|48=IS0000013464|54=1|55=37744|59=0|60=20110427-12:00:12|150=0|151=10000|9140=Y|5815=23|109=Y48|76=BOOK|10=164|
8=FIX.4.2|9=0185|35=8|34=85|52=20110427-12:00:12|49=INORD|50=S|56=Y48|57=TST814014|128=Y48|129=Y4801|6=0.0|11=15056900000051|14=0|17=0|20=0|37=9723|39=0|54=1|55=37744|150=D|151=0|109=Y48|378=8|198=9868|10=157|
8=FIX.4.2|9=0292|35=8|34=86|52=20110427-12:00:19|49=INORD|50=S|56=Y48|57=TST814014|128=Y48|129=Y4801|6=0.0|11=15056900000052|14=0|15=ISK|17=GPCFD1-9966|18=N|20=0|37=9725|38=10000|39=0|40=2|44=50.0000|528=A|48=IS0000013464|54=1|55=37744|59=0|60=20110427-12:00:19|150=0|151=10000|9140=Y|5815=23|109=Y48|76=BOOK|10=186|
8=FIX.4.2|9=0185|35=8|34=87|52=20110427-12:00:19|49=INORD|50=S|56=Y48|57=TST814014|128=Y48|129=Y4801|6=0.0|11=15056900000052|14=0|17=0|20=0|37=9725|39=0|54=1|55=37744|150=D|151=0|109=Y48|378=8|198=9869|10=170|
8=FIX.4.2|9=0292|35=8|34=88|52=20110427-12:00:25|49=INORD|50=S|56=Y48|57=TST814014|128=Y48|129=Y4801|6=0.0|11=15056900000053|14=0|15=ISK|17=GPCFD1-9970|18=N|20=0|37=9729|38=10000|39=0|40=2|44=50.0000|528=A|48=IS0000013464|54=1|55=37744|59=0|60=20110427-12:00:25|150=0|151=10000|9140=Y|5815=23|109=Y48|76=BOOK|10=182|
8=FIX.4.2|9=0185|35=8|34=89|52=20110427-12:00:25|49=INORD|50=S|56=Y48|57=TST814014|128=Y48|129=Y4801|6=0.0|11=15056900000053|14=0|17=0|20=0|37=9729|39=0|54=1|55=37744|150=D|151=0|109=Y48|378=8|198=9871|10=167|
8=FIX.4.2|9=52|35=0|34=70|49=Y48|52=20110427-12:00:02.948|56=INORD|10=067|
8=FIX.4.2|9=0048|35=0|34=90|52=20110427-12:00:34|49=INORD|56=Y48|10=220|
8=FIX.4.2|9=0291|35=8|34=91|52=20110427-12:00:43|49=INORD|50=S|56=Y48|57=TST814014|128=Y48|129=Y4801|6=0.0|11=15056900000054|14=0|15=ISK|17=GPCFD1-9974|18=N|20=0|37=9733|38=10000|39=0|40=2|44=50.0000|528=A|48=IS0000000388|54=1|55=5482|59=0|60=20110427-12:00:43|150=0|151=10000|9140=Y|5815=23|109=Y48|76=BOOK|10=122|
8=FIX.4.2|9=0184|35=8|34=92|52=20110427-12:00:43|49=INORD|50=S|56=Y48|57=TST814014|128=Y48|129=Y4801|6=0.0|11=15056900000054|14=0|17=0|20=0|37=9733|39=0|54=1|55=5482|150=D|151=0|109=Y48|378=8|198=9873|10=104|
8=FIX.4.2|9=0291|35=8|34=93|52=20110427-12:00:47|49=INORD|50=S|56=Y48|57=TST814014|128=Y48|129=Y4801|6=0.0|11=15056900000055|14=0|15=ISK|17=GPCFD1-9976|18=N|20=0|37=9735|38=10000|39=0|40=2|44=50.0000|528=A|48=IS0000000388|54=1|55=5482|59=0|60=20110427-12:00:47|150=0|151=10000|9140=Y|5815=23|109=Y48|76=BOOK|10=137|
8=FIX.4.2|9=0184|35=8|34=94|52=20110427-12:00:47|49=INORD|50=S|56=Y48|57=TST814014|128=Y48|129=Y4801|6=0.0|11=15056900000055|14=0|17=0|20=0|37=9735|39=0|54=1|55=5482|150=D|151=0|109=Y48|378=8|198=9874|10=114|
8=FIX.4.2|9=0295|35=8|34=95|52=20110427-12:00:54|49=INORD|50=S|56=Y48|57=TST814014|128=Y48|129=Y4801|6=0.0|11=15056900000056|14=0|15=ISK|17=GPCFD1-9982|18=N|20=0|37=9739|38=1000000|39=0|40=2|44=50.0000|528=A|48=IS0000000388|54=1|55=5482|59=0|60=20110427-12:00:54|150=0|151=1000000|9140=Y|5815=23|109=Y48|76=BOOK|10=077|
8=FIX.4.2|9=0184|35=8|34=96|52=20110427-12:00:54|49=INORD|50=S|56=Y48|57=TST814014|128=Y48|129=Y4801|6=0.0|11=15056900000056|14=0|17=0|20=0|37=9739|39=0|54=1|55=5482|150=D|151=0|109=Y48|378=8|198=9876|10=121|
8=FIX.4.2|9=69|35=A|34=1|49=Y48|52=20110427-12:16:48.734|56=INORD|98=0|108=60|141=Y|10=121|
8=FIX.4.2|9=0065|35=A|34=1|52=20110427-12:17:20|49=INORD|56=Y48|141=Y|98=0|108=60|10=000|
8=FIX.4.2|9=69|35=A|34=1|49=Y48|52=20110427-12:18:48.258|56=INORD|98=0|108=60|141=Y|10=124|
8=FIX.4.2|9=0065|35=A|34=1|52=20110427-12:19:19|49=INORD|56=Y48|141=Y|98=0|108=60|10=010|
8=FIX.4.2|9=69|35=A|34=1|49=Y48|52=20110427-12:19:48.524|56=INORD|98=0|108=60|141=Y|10=121|
8=FIX.4.2|9=0065|35=A|34=1|52=20110427-12:20:20|49=INORD|56=Y48|141=Y|98=0|108=60|10=250|
8=FIX.4.2|9=51|35=0|34=2|49=Y48|52=20110427-12:20:48.884|56=INORD|10=024|
8=FIX.4.2|9=0047|35=0|34=2|52=20110427-12:21:20|49=INORD|56=Y48|10=162|
8=FIX.4.2|9=69|35=A|34=1|49=Y48|52=20110427-12:21:50.907|56=INORD|98=0|108=60|141=Y|10=112|
8=FIX.4.2|9=0065|35=A|34=1|52=20110427-12:22:27|49=INORD|56=Y48|141=Y|98=0|108=60|10=003|
8=FIX.4.2|9=69|35=A|34=1|49=Y48|52=20110427-12:24:35.271|56=INORD|98=0|108=60|141=Y|10=112|
8=FIX.4.2|9=0065|35=A|34=1|52=20110427-12:25:07|49=INORD|56=Y48|141=Y|98=0|108=60|10=004|
8=FIX.4.2|9=69|35=A|34=1|49=Y48|52=20110427-12:27:42.562|56=INORD|98=0|108=60|141=Y|10=116|
8=FIX.4.2|9=0065|35=A|34=1|52=20110427-12:28:14|49=INORD|56=Y48|141=Y|98=0|108=60|10=005|
8=FIX.4.2|9=51|35=0|34=2|49=Y48|52=20110427-12:28:42.969|56=INORD|10=030|
8=FIX.4.2|9=0047|35=0|34=2|52=20110427-12:29:14|49=INORD|56=Y48|10=173|
8=FIX.4.2|9=69|35=A|34=1|49=Y48|52=20110427-12:30:01.367|56=INORD|98=0|108=60|141=Y|10=108|
8=FIX.4.2|9=0065|35=A|34=1|52=20110427-12:30:33|49=INORD|56=Y48|141=Y|98=0|108=60|10=255|
8=FIX.4.2|9=51|35=0|34=2|49=Y48|52=20110427-12:31:01.848|56=INORD|10=015|
8=FIX.4.2|9=0047|35=0|34=2|52=20110427-12:31:33|49=INORD|56=Y48|10=167|
8=FIX.4.2|9=51|35=0|34=3|49=Y48|52=20110427-12:32:01.056|56=INORD|10=008|
8=FIX.4.2|9=0047|35=0|34=3|52=20110427-12:32:33|49=INORD|56=Y48|10=169|
8=FIX.4.2|9=51|35=0|34=4|49=Y48|52=20110427-12:33:04.551|56=INORD|10=013|
8=FIX.4.2|9=0047|35=0|34=4|52=20110427-12:33:34|49=INORD|56=Y48|10=172|
8=FIX.4.2|9=69|35=A|34=1|49=Y48|52=20110427-12:34:12.405|56=INORD|98=0|108=60|141=Y|10=107|
8=FIX.4.2|9=0065|35=A|34=1|52=20110427-12:34:44|49=INORD|56=Y48|141=Y|98=0|108=60|10=005|
8=FIX.4.2|9=51|35=0|34=2|49=Y48|52=20110427-12:35:12.989|56=INORD|10=027|
8=FIX.4.2|9=0047|35=0|34=2|52=20110427-12:35:44|49=INORD|56=Y48|10=173|
8=FIX.4.2|9=51|35=0|34=3|49=Y48|52=20110427-12:36:12.055|56=INORD|10=013|
8=FIX.4.2|9=0047|35=0|34=3|52=20110427-12:36:43|49=INORD|56=Y48|10=174|
8=FIX.4.2|9=51|35=0|34=4|49=Y48|52=20110427-12:37:12.156|56=INORD|10=017|
8=FIX.4.2|9=0047|35=0|34=4|52=20110427-12:37:43|49=INORD|56=Y48|10=176|
8=FIX.4.2|9=51|35=0|34=5|49=Y48|52=20110427-12:38:12.265|56=INORD|10=020|
8=FIX.4.2|9=0047|35=0|34=5|52=20110427-12:38:43|49=INORD|56=Y48|10=178|
8=FIX.4.2|9=51|35=0|34=6|49=Y48|52=20110427-12:39:12.362|56=INORD|10=020|
8=FIX.4.2|9=0047|35=0|34=6|52=20110427-12:39:43|49=INORD|56=Y48|10=180|
8=FIX.4.2|9=51|35=0|34=7|49=Y48|52=20110427-12:40:12.459|56=INORD|10=020|
8=FIX.4.2|9=0047|35=0|34=7|52=20110427-12:40:44|49=INORD|56=Y48|10=174|
8=FIX.4.2|9=51|35=0|34=8|49=Y48|52=20110427-12:41:12.557|56=INORD|10=021|
8=FIX.4.2|9=0047|35=0|34=8|52=20110427-12:41:44|49=INORD|56=Y48|10=176|
8=FIX.4.2|9=51|35=0|34=9|49=Y48|52=20110427-12:42:12.656|56=INORD|10=023|
8=FIX.4.2|9=0047|35=0|34=9|52=20110427-12:42:44|49=INORD|56=Y48|10=178|
8=FIX.4.2|9=52|35=0|34=10|49=Y48|52=20110427-12:43:12.767|56=INORD|10=068|
8=FIX.4.2|9=0048|35=0|34=10|52=20110427-12:43:44|49=INORD|56=Y48|10=220|
8=FIX.4.2|9=52|35=0|34=11|49=Y48|52=20110427-12:44:12.865|56=INORD|10=069|
8=FIX.4.2|9=0048|35=0|34=11|52=20110427-12:44:44|49=INORD|56=Y48|10=222|
8=FIX.4.2|9=52|35=0|34=12|49=Y48|52=20110427-12:45:12.967|56=INORD|10=074|
8=FIX.4.2|9=0048|35=0|34=12|52=20110427-12:45:44|49=INORD|56=Y48|10=224|
8=FIX.4.2|9=52|35=0|34=13|49=Y48|52=20110427-12:46:12.082|56=INORD|10=064|
8=FIX.4.2|9=0048|35=0|34=13|52=20110427-12:46:43|49=INORD|56=Y48|10=225|
8=FIX.4.2|9=52|35=0|34=14|49=Y48|52=20110427-12:47:12.180|56=INORD|10=065|
8=FIX.4.2|9=0048|35=0|34=14|52=20110427-12:47:43|49=INORD|56=Y48|10=227|
8=FIX.4.2|9=52|35=0|34=15|49=Y48|52=20110427-12:48:12.281|56=INORD|10=069|
8=FIX.4.2|9=0048|35=0|34=15|52=20110427-12:48:43|49=INORD|56=Y48|10=229|
8=FIX.4.2|9=52|35=0|34=16|49=Y48|52=20110427-12:49:12.410|56=INORD|10=065|
8=FIX.4.2|9=0048|35=0|34=16|52=20110427-12:49:44|49=INORD|56=Y48|10=232|
8=FIX.4.2|9=52|35=0|34=17|49=Y48|52=20110427-12:50:12.514|56=INORD|10=063|
8=FIX.4.2|9=0048|35=0|34=17|52=20110427-12:50:44|49=INORD|56=Y48|10=225|
8=FIX.4.2|9=52|35=0|34=18|49=Y48|52=20110427-12:51:12.620|56=INORD|10=063|
8=FIX.4.2|9=0048|35=0|34=18|52=20110427-12:51:44|49=INORD|56=Y48|10=227|
8=FIX.4.2|9=52|35=0|34=19|49=Y48|52=20110427-12:52:12.735|56=INORD|10=072|
8=FIX.4.2|9=0048|35=0|34=19|52=20110427-12:52:44|49=INORD|56=Y48|10=229|
8=FIX.4.2|9=52|35=0|34=20|49=Y48|52=20110427-12:53:12.853|56=INORD|10=066|
8=FIX.4.2|9=0048|35=0|34=20|52=20110427-12:53:44|49=INORD|56=Y48|10=222|
8=FIX.4.2|9=52|35=0|34=21|49=Y48|52=20110427-12:54:12.953|56=INORD|10=069|
8=FIX.4.2|9=0048|35=0|34=21|52=20110427-12:54:44|49=INORD|56=Y48|10=224|
8=FIX.4.2|9=52|35=0|34=22|49=Y48|52=20110427-12:55:12.085|56=INORD|10=067|
8=FIX.4.2|9=0048|35=0|34=22|52=20110427-12:55:43|49=INORD|56=Y48|10=225|
8=FIX.4.2|9=52|35=0|34=23|49=Y48|52=20110427-12:56:12.191|56=INORD|10=067|
8=FIX.4.2|9=0048|35=0|34=23|52=20110427-12:56:43|49=INORD|56=Y48|10=227|
8=FIX.4.2|9=52|35=0|34=24|49=Y48|52=20110427-12:57:12.288|56=INORD|10=076|
8=FIX.4.2|9=0048|35=0|34=24|52=20110427-12:57:44|49=INORD|56=Y48|10=230|
8=FIX.4.2|9=52|35=0|34=25|49=Y48|52=20110427-12:58:12.390|56=INORD|10=072|
8=FIX.4.2|9=0048|35=0|34=25|52=20110427-12:58:44|49=INORD|56=Y48|10=232|
8=FIX.4.2|9=52|35=0|34=26|49=Y48|52=20110427-12:59:12.490|56=INORD|10=075|
8=FIX.4.2|9=0048|35=0|34=26|52=20110427-12:59:44|49=INORD|56=Y48|10=234|
8=FIX.4.2|9=52|35=0|34=27|49=Y48|52=20110427-13:00:12.605|56=INORD|10=061|
8=FIX.4.2|9=0048|35=0|34=27|52=20110427-13:00:44|49=INORD|56=Y48|10=222|
8=FIX.4.2|9=52|35=0|34=28|49=Y48|52=20110427-13:01:12.708|56=INORD|10=067|
8=FIX.4.2|9=0048|35=0|34=28|52=20110427-13:01:44|49=INORD|56=Y48|10=224|
8=FIX.4.2|9=52|35=0|34=29|49=Y48|52=20110427-13:02:12.814|56=INORD|10=067|
8=FIX.4.2|9=0048|35=0|34=29|52=20110427-13:02:44|49=INORD|56=Y48|10=226|
8=FIX.4.2|9=52|35=0|34=30|49=Y48|52=20110427-13:03:12.922|56=INORD|10=060|
8=FIX.4.2|9=0048|35=0|34=30|52=20110427-13:03:44|49=INORD|56=Y48|10=219|
8=FIX.4.2|9=52|35=0|34=31|49=Y48|52=20110427-13:04:12.020|56=INORD|10=051|
8=FIX.4.2|9=0048|35=0|34=31|52=20110427-13:04:43|49=INORD|56=Y48|10=220|
8=FIX.4.2|9=52|35=0|34=32|49=Y48|52=20110427-13:05:12.148|56=INORD|10=064|
8=FIX.4.2|9=0048|35=0|34=32|52=20110427-13:05:43|49=INORD|56=Y48|10=222|
8=FIX.4.2|9=52|35=0|34=33|49=Y48|52=20110427-13:06:12.257|56=INORD|10=067|
8=FIX.4.2|9=0048|35=0|34=33|52=20110427-13:06:44|49=INORD|56=Y48|10=225|
8=FIX.4.2|9=52|35=0|34=34|49=Y48|52=20110427-13:07:12.355|56=INORD|10=068|
8=FIX.4.2|9=0048|35=0|34=34|52=20110427-13:07:44|49=INORD|56=Y48|10=227|
8=FIX.4.2|9=52|35=0|34=35|49=Y48|52=20110427-13:08:12.459|56=INORD|10=075|
8=FIX.4.2|9=0048|35=0|34=35|52=20110427-13:08:44|49=INORD|56=Y48|10=229|
8=FIX.4.2|9=52|35=0|34=36|49=Y48|52=20110427-13:09:12.580|56=INORD|10=072|
8=FIX.4.2|9=0048|35=0|34=36|52=20110427-13:09:44|49=INORD|56=Y48|10=231|
8=FIX.4.2|9=69|35=A|34=1|49=Y48|52=20110427-13:12:24.182|56=INORD|98=0|108=60|141=Y|10=109|
8=FIX.4.2|9=0065|35=A|34=1|52=20110427-13:12:56|49=INORD|56=Y48|141=Y|98=0|108=60|10=005|
8=FIX.4.2|9=51|35=0|34=2|49=Y48|52=20110427-13:13:24.551|56=INORD|10=012|
8=FIX.4.2|9=0047|35=0|34=2|52=20110427-13:13:56|49=INORD|56=Y48|10=173|
8=FIX.4.2|9=51|35=0|34=3|49=Y48|52=20110427-13:14:24.703|56=INORD|10=013|
8=FIX.4.2|9=0047|35=0|34=3|52=20110427-13:14:56|49=INORD|56=Y48|10=175|
8=FIX.4.2|9=51|35=0|34=4|49=Y48|52=20110427-13:15:24.866|56=INORD|10=025|
8=FIX.4.2|9=0047|35=0|34=4|52=20110427-13:15:56|49=INORD|56=Y48|10=177|
8=FIX.4.2|9=51|35=0|34=5|49=Y48|52=20110427-13:16:24.987|56=INORD|10=031|
8=FIX.4.2|9=0047|35=0|34=5|52=20110427-13:16:56|49=INORD|56=Y48|10=179|
8=FIX.4.2|9=69|35=A|34=1|49=Y48|52=20110427-13:19:03.105|56=INORD|98=0|108=60|141=Y|10=108|
8=FIX.4.2|9=0065|35=A|34=1|52=20110427-13:19:35|49=INORD|56=Y48|141=Y|98=0|108=60|10=009|
8=FIX.4.2|9=0047|35=0|34=2|52=20110427-13:20:35|49=INORD|56=Y48|10=168|
8=FIX.4.2|9=51|35=0|34=2|49=Y48|52=20110427-13:20:03.767|56=INORD|10=016|
8=FIX.4.2|9=51|35=0|34=3|49=Y48|52=20110427-13:21:03.771|56=INORD|10=013|
8=FIX.4.2|9=0047|35=0|34=3|52=20110427-13:21:35|49=INORD|56=Y48|10=170|
8=FIX.4.2|9=69|35=A|34=1|49=Y48|52=20110427-13:22:31.691|56=INORD|98=0|108=60|141=Y|10=113|
8=FIX.4.2|9=0065|35=A|34=1|52=20110427-13:23:03|49=INORD|56=Y48|141=Y|98=0|108=60|10=255|
8=FIX.4.2|9=69|35=A|34=1|49=Y48|52=20110427-13:24:05.285|56=INORD|98=0|108=60|141=Y|10=115|
8=FIX.4.2|9=0065|35=A|34=1|52=20110427-13:24:37|49=INORD|56=Y48|141=Y|98=0|108=60|10=007|
8=FIX.4.2|9=51|35=0|34=2|49=Y48|52=20110427-13:25:05.639|56=INORD|10=021|
8=FIX.4.2|9=0047|35=0|34=2|52=20110427-13:25:37|49=INORD|56=Y48|10=175|
8=FIX.4.2|9=51|35=0|34=3|49=Y48|52=20110427-13:26:05.779|56=INORD|10=028|
8=FIX.4.2|9=0047|35=0|34=3|52=20110427-13:26:37|49=INORD|56=Y48|10=177|
8=FIX.4.2|9=69|35=A|34=1|49=Y48|52=20110427-13:29:09.351|56=INORD|98=0|108=60|141=Y|10=118|
8=FIX.4.2|9=0065|35=A|34=1|52=20110427-13:29:41|49=INORD|56=Y48|141=Y|98=0|108=60|10=007|
8=FIX.4.2|9=51|35=0|34=2|49=Y48|52=20110427-13:30:09.706|56=INORD|10=016|
8=FIX.4.2|9=0047|35=0|34=2|52=20110427-13:30:41|49=INORD|56=Y48|10=166|
8=FIX.4.2|9=51|35=0|34=3|49=Y48|52=20110427-13:31:09.855|56=INORD|10=023|
8=FIX.4.2|9=0047|35=0|34=3|52=20110427-13:31:41|49=INORD|56=Y48|10=168|
8=FIX.4.2|9=51|35=0|34=4|49=Y48|52=20110427-13:32:09.973|56=INORD|10=026|
8=FIX.4.2|9=0047|35=0|34=4|52=20110427-13:32:41|49=INORD|56=Y48|10=170|
8=FIX.4.2|9=51|35=0|34=5|49=Y48|52=20110427-13:33:09.108|56=INORD|10=018|
8=FIX.4.2|9=0047|35=0|34=5|52=20110427-13:33:41|49=INORD|56=Y48|10=172|
8=FIX.4.2|9=51|35=0|34=6|49=Y48|52=20110427-13:34:09.219|56=INORD|10=023|
8=FIX.4.2|9=0047|35=0|34=6|52=20110427-13:34:41|49=INORD|56=Y48|10=174|
8=FIX.4.2|9=51|35=0|34=7|49=Y48|52=20110427-13:35:09.347|56=INORD|10=027|
8=FIX.4.2|9=0047|35=0|34=7|52=20110427-13:35:41|49=INORD|56=Y48|10=176|
8=FIX.4.2|9=51|35=0|34=8|49=Y48|52=20110427-13:36:09.461|56=INORD|10=026|
8=FIX.4.2|9=0047|35=0|34=8|52=20110427-13:36:41|49=INORD|56=Y48|10=178|
8=FIX.4.2|9=51|35=0|34=9|49=Y48|52=20110427-13:37:09.613|56=INORD|10=027|
8=FIX.4.2|9=0047|35=0|34=9|52=20110427-13:37:41|49=INORD|56=Y48|10=180|
8=FIX.4.2|9=52|35=0|34=10|49=Y48|52=20110427-13:38:09.740|56=INORD|10=070|
8=FIX.4.2|9=0048|35=0|34=10|52=20110427-13:38:41|49=INORD|56=Y48|10=222|
8=FIX.4.2|9=52|35=0|34=11|49=Y48|52=20110427-13:39:09.985|56=INORD|10=083|
8=FIX.4.2|9=0048|35=0|34=11|52=20110427-13:39:41|49=INORD|56=Y48|10=224|
8=FIX.4.2|9=69|35=A|34=1|49=Y48|52=20110427-13:40:57.659|56=INORD|98=0|108=60|141=Y|10=125|
8=FIX.4.2|9=0065|35=A|34=1|52=20110427-13:41:29|49=INORD|56=Y48|141=Y|98=0|108=60|10=007|
8=FIX.4.2|9=51|35=0|34=2|49=Y48|52=20110427-13:41:57.239|56=INORD|10=022|
8=FIX.4.2|9=0047|35=0|34=2|52=20110427-13:42:29|49=INORD|56=Y48|10=175|
8=FIX.4.2|9=51|35=0|34=3|49=Y48|52=20110427-13:42:57.406|56=INORD|10=020|
8=FIX.4.2|9=0047|35=0|34=3|52=20110427-13:43:29|49=INORD|56=Y48|10=177|
8=FIX.4.2|9=69|35=A|34=1|49=Y48|52=20110427-13:56:25.881|56=INORD|98=0|108=60|141=Y|10=124|
8=FIX.4.2|9=0065|35=A|34=1|52=20110427-13:56:57|49=INORD|56=Y48|141=Y|98=0|108=60|10=014|
8=FIX.4.2|9=51|35=0|34=2|49=Y48|52=20110427-13:57:25.276|56=INORD|10=025|
8=FIX.4.2|9=0047|35=0|34=2|52=20110427-13:57:57|49=INORD|56=Y48|10=182|
8=FIX.4.2|9=51|35=0|34=3|49=Y48|52=20110427-13:58:25.420|56=INORD|10=018|
8=FIX.4.2|9=0047|35=0|34=3|52=20110427-13:58:57|49=INORD|56=Y48|10=184|
8=FIX.4.2|9=69|35=A|34=1|49=Y48|52=20110427-14:03:02.722|56=INORD|98=0|108=60|141=Y|10=106|
8=FIX.4.2|9=0065|35=A|34=1|52=20110427-14:03:34|49=INORD|56=Y48|141=Y|98=0|108=60|10=002|
8=FIX.4.2|9=51|35=0|34=2|49=Y48|52=20110427-14:04:02.986|56=INORD|10=021|
8=FIX.4.2|9=0047|35=0|34=2|52=20110427-14:04:34|49=INORD|56=Y48|10=170|
8=FIX.4.2|9=51|35=0|34=3|49=Y48|52=20110427-14:05:02.177|56=INORD|10=015|
8=FIX.4.2|9=0047|35=0|34=3|52=20110427-14:05:33|49=INORD|56=Y48|10=171|
8=FIX.4.2|9=51|35=0|34=4|49=Y48|52=20110427-14:06:02.294|56=INORD|10=017|
8=FIX.4.2|9=0047|35=0|34=4|52=20110427-14:06:33|49=INORD|56=Y48|10=173|
8=FIX.4.2|9=51|35=0|34=5|49=Y48|52=20110427-14:07:02.438|56=INORD|10=019|
8=FIX.4.2|9=0047|35=0|34=5|52=20110427-14:07:34|49=INORD|56=Y48|10=176|
8=FIX.4.2|9=69|35=A|34=1|49=Y48|52=20110427-14:12:29.447|56=INORD|98=0|108=60|141=Y|10=119|
8=FIX.4.2|9=0065|35=A|34=1|52=20110427-14:13:01|49=INORD|56=Y48|141=Y|98=0|108=60|10=253|
8=FIX.4.2|9=69|35=A|34=1|49=Y48|52=20110427-14:15:41.019|56=INORD|98=0|108=60|141=Y|10=111|
8=FIX.4.2|9=0065|35=A|34=1|52=20110427-14:16:12|49=INORD|56=Y48|141=Y|98=0|108=60|10=002|
8=FIX.4.2|9=51|35=0|34=2|49=Y48|52=20110427-14:16:41.304|56=INORD|10=011|
8=FIX.4.2|9=0047|35=0|34=2|52=20110427-14:17:13|49=INORD|56=Y48|10=171|
8=FIX.4.2|9=51|35=0|34=3|49=Y48|52=20110427-14:17:41.552|56=INORD|10=018|
8=FIX.4.2|9=0047|35=0|34=3|52=20110427-14:18:13|49=INORD|56=Y48|10=173|
8=FIX.4.2|9=51|35=0|34=4|49=Y48|52=20110427-14:18:41.646|56=INORD|10=024|
8=FIX.4.2|9=0047|35=0|34=4|52=20110427-14:19:13|49=INORD|56=Y48|10=175|
8=FIX.4.2|9=51|35=0|34=5|49=Y48|52=20110427-14:19:41.748|56=INORD|10=029|
8=FIX.4.2|9=0047|35=0|34=5|52=20110427-14:20:13|49=INORD|56=Y48|10=168|
8=FIX.4.2|9=69|35=A|34=1|49=Y48|52=20110427-14:21:09.960|56=INORD|98=0|108=60|141=Y|10=117|
8=FIX.4.2|9=0065|35=A|34=1|52=20110427-14:21:41|49=INORD|56=Y48|141=Y|98=0|108=60|10=000|
8=FIX.4.2|9=69|35=A|34=1|49=Y48|52=20110427-14:22:54.430|56=INORD|98=0|108=60|141=Y|10=110|
8=FIX.4.2|9=0065|35=A|34=1|52=20110427-14:23:26|49=INORD|56=Y48|141=Y|98=0|108=60|10=005|
8=FIX.4.2|9=69|35=A|34=1|49=Y48|52=20110427-14:24:24.133|56=INORD|98=0|108=60|141=Y|10=109|
8=FIX.4.2|9=0065|35=A|34=1|52=20110427-14:24:56|49=INORD|56=Y48|141=Y|98=0|108=60|10=009|
8=FIX.4.2|9=51|35=0|34=2|49=Y48|52=20110427-14:25:24.375|56=INORD|10=020|
8=FIX.4.2|9=0047|35=0|34=2|52=20110427-14:25:56|49=INORD|56=Y48|10=177|
8=FIX.4.2|9=51|35=0|34=3|49=Y48|52=20110427-14:26:24.599|56=INORD|10=030|
8=FIX.4.2|9=0047|35=0|34=3|52=20110427-14:26:56|49=INORD|56=Y48|10=179|
8=FIX.4.2|9=51|35=0|34=4|49=Y48|52=20110427-14:27:24.717|56=INORD|10=024|
8=FIX.4.2|9=0047|35=0|34=4|52=20110427-14:27:56|49=INORD|56=Y48|10=181|
8=FIX.4.2|9=51|35=0|34=5|49=Y48|52=20110427-14:28:24.826|56=INORD|10=027|
8=FIX.4.2|9=0047|35=0|34=5|52=20110427-14:28:56|49=INORD|56=Y48|10=183|
8=FIX.4.2|9=69|35=A|34=1|49=Y48|52=20110427-14:31:37.925|56=INORD|98=0|108=60|141=Y|10=120|
8=FIX.4.2|9=0065|35=A|34=1|52=20110427-14:32:09|49=INORD|56=Y48|141=Y|98=0|108=60|10=006|
8=FIX.4.2|9=0290|35=8|34=2|52=20110427-14:32:09|49=INORD|50=S|56=Y48|57=TST814014|128=Y48|129=Y4801|6=0.0|11=15056900000084|14=0|15=ISK|17=GPCFD1-29560|18=N|20=0|37=28509|38=1900|39=0|40=2|44=45.0000|528=A|48=IS0000000388|54=1|55=5482|59=0|60=20110427-14:32:09|150=0|151=1900|9140=Y|5815=23|109=Y48|76=BOOK|10=103|
8=FIX.4.2|9=0185|35=8|34=3|52=20110427-14:32:09|49=INORD|50=S|56=Y48|57=TST814014|128=Y48|129=Y4801|6=0.0|11=15056900000084|14=0|17=0|20=0|37=28509|39=0|54=1|55=5482|150=D|151=0|109=Y48|378=8|198=20458|10=151|
8=FIX.4.2|9=51|35=0|34=2|49=Y48|52=20110427-14:32:37.013|56=INORD|10=011|
8=FIX.4.2|9=0047|35=0|34=4|52=20110427-14:33:08|49=INORD|56=Y48|10=175|
8=FIX.4.2|9=0346|35=8|34=5|52=20110427-14:33:11|49=INORD|50=S|56=Y48|57=TST814014|128=Y48|129=Y4801|6=45.0000|11=15056900000084|14=1900|15=ISK|17=B7378|18=N|20=0|31=45.0000|32=1900|37=28509|38=1900|39=2|40=2|44=45.0000|528=A|48=IS0000000388|54=1|55=5482|59=0|60=20110427-14:33:11|75=20110427|150=2|151=0|9140=Y|5815=23|109=Y48|382=1|375=Y48|9882=Y|1003=000007378|10=054|
8=FIX.4.2|9=0346|35=8|34=6|52=20110427-14:33:11|49=INORD|50=S|56=Y48|57=TST814014|128=Y48|129=Y4801|6=45.0000|11=15056900000083|14=1900|15=ISK|17=S7378|18=N|20=0|31=45.0000|32=1900|37=28503|38=1900|39=2|40=2|44=45.0000|528=A|48=IS0000000388|54=2|55=5482|59=0|60=20110427-14:33:11|75=20110427|150=2|151=0|9140=Y|5815=23|109=Y48|382=1|375=Y48|9882=Y|1003=000007378|10=066|
8=FIX.4.2|9=69|35=A|34=1|49=Y48|52=20110427-14:38:43.665|56=INORD|98=0|108=60|141=Y|10=125|
8=FIX.4.2|9=0065|35=A|34=1|52=20110427-14:39:15|49=INORD|56=Y48|141=Y|98=0|108=60|10=010|
8=FIX.4.2|9=51|35=0|34=2|49=Y48|52=20110427-14:39:43.058|56=INORD|10=024|
8=FIX.4.2|9=0047|35=0|34=2|52=20110427-14:40:14|49=INORD|56=Y48|10=168|
8=FIX.4.2|9=69|35=A|34=1|49=Y48|52=20110427-14:41:29.049|56=INORD|98=0|108=60|141=Y|10=119|
8=FIX.4.2|9=0065|35=A|34=1|52=20110427-14:42:01|49=INORD|56=Y48|141=Y|98=0|108=60|10=255|
8=FIX.4.2|9=51|35=0|34=2|49=Y48|52=20110427-14:42:29.345|56=INORD|10=021|
8=FIX.4.2|9=0047|35=0|34=2|52=20110427-14:43:01|49=INORD|56=Y48|10=167|
8=FIX.4.2|9=51|35=0|34=3|49=Y48|52=20110427-14:43:29.545|56=INORD|10=025|
8=FIX.4.2|9=0047|35=0|34=3|52=20110427-14:44:01|49=INORD|56=Y48|10=169|
8=FIX.4.2|9=69|35=A|34=1|49=Y48|52=20110427-14:46:25.250|56=INORD|98=0|108=60|141=Y|10=114|
8=FIX.4.2|9=0065|35=A|34=1|52=20110427-14:46:57|49=INORD|56=Y48|141=Y|98=0|108=60|10=014|
8=FIX.4.2|9=51|35=0|34=2|49=Y48|52=20110427-14:47:25.527|56=INORD|10=024|
8=FIX.4.2|9=0047|35=0|34=2|52=20110427-14:47:57|49=INORD|56=Y48|10=182|
8=FIX.4.2|9=51|35=0|34=3|49=Y48|52=20110427-14:48:25.717|56=INORD|10=027|
8=FIX.4.2|9=0047|35=0|34=3|52=20110427-14:48:57|49=INORD|56=Y48|10=184|
8=FIX.4.2|9=0273|35=8|34=4|52=20110427-14:49:30|49=INORD|50=S|56=Y48|57=Y4802|6=0.0|11=KOD0C1YASDYEH|14=0|15=ISK|17=GPCFD1-30043|18=N|20=0|37=28987|38=1000000|39=0|40=2|44=50.0000|528=A|48=IS0000000388|54=1|55=5482|59=0|60=20110427-14:49:30|150=0|151=1000000|9140=Y|5815=23|109=Y48|76=BOOK|10=165|
8=FIX.4.2|9=0162|35=8|34=5|52=20110427-14:49:30|49=INORD|50=S|56=Y48|57=Y4802|6=0.0|11=KOD0C1YASDYEH|14=0|17=0|20=0|37=28987|39=0|54=1|55=5482|150=D|151=0|109=Y48|378=8|198=20797|10=213|
8=FIX.4.2|9=0273|35=8|34=6|52=20110427-14:49:44|49=INORD|50=S|56=Y48|57=Y4802|6=0.0|11=KODSD4R21HQVJ|14=0|15=ISK|17=GPCFD1-30053|18=N|20=0|37=28997|38=1000000|39=0|40=2|44=50.0000|528=A|48=IS0000000388|54=1|55=5482|59=0|60=20110427-14:49:44|150=0|151=1000000|9140=Y|5815=23|109=Y48|76=BOOK|10=177|
8=FIX.4.2|9=0162|35=8|34=7|52=20110427-14:49:44|49=INORD|50=S|56=Y48|57=Y4802|6=0.0|11=KODSD4R21HQVJ|14=0|17=0|20=0|37=28997|39=0|54=1|55=5482|150=D|151=0|109=Y48|378=8|198=20802|10=206|
8=FIX.4.2|9=0273|35=8|34=8|52=20110427-14:49:55|49=INORD|50=S|56=Y48|57=Y4802|6=0.0|11=KODPIPPUYUFIU|14=0|15=ISK|17=GPCFD1-30057|18=N|20=0|37=29001|38=1000000|39=0|40=2|44=50.0000|528=A|48=IS0000000388|54=1|55=5482|59=0|60=20110427-14:49:55|150=0|151=1000000|9140=Y|5815=23|109=Y48|76=BOOK|10=011|
8=FIX.4.2|9=0162|35=8|34=9|52=20110427-14:49:55|49=INORD|50=S|56=Y48|57=Y4802|6=0.0|11=KODPIPPUYUFIU|14=0|17=0|20=0|37=29001|39=0|54=1|55=5482|150=D|151=0|109=Y48|378=8|198=20804|10=036|
8=FIX.4.2|9=51|35=0|34=4|49=Y48|52=20110427-14:49:25.581|56=INORD|10=028|
8=FIX.4.2|9=0048|35=0|34=10|52=20110427-14:49:57|49=INORD|56=Y48|10=232|
8=FIX.4.2|9=0274|35=8|34=11|52=20110427-14:50:07|49=INORD|50=S|56=Y48|57=Y4802|6=0.0|11=KODXVNAXJOSAO|14=0|15=ISK|17=GPCFD1-30068|18=N|20=0|37=29009|38=1000000|39=0|40=2|44=50.0000|528=A|48=IS0000000388|54=1|55=5482|59=0|60=20110427-14:50:07|150=0|151=1000000|9140=Y|5815=23|109=Y48|76=BOOK|10=027|
8=FIX.4.2|9=0163|35=8|34=12|52=20110427-14:50:07|49=INORD|50=S|56=Y48|57=Y4802|6=0.0|11=KODXVNAXJOSAO|14=0|17=0|20=0|37=29009|39=0|54=1|55=5482|150=D|151=0|109=Y48|378=8|198=20808|10=065|
8=FIX.4.2|9=0274|35=8|34=13|52=20110427-14:50:16|49=INORD|50=S|56=Y48|57=Y4802|6=0.0|11=KODSGWROUOALD|14=0|15=ISK|17=GPCFD1-30075|18=N|20=0|37=29015|38=1000000|39=0|40=2|44=50.0000|528=A|48=IS0000000388|54=1|55=5482|59=0|60=20110427-14:50:16|150=0|151=1000000|9140=Y|5815=23|109=Y48|76=BOOK|10=014|
8=FIX.4.2|9=0163|35=8|34=14|52=20110427-14:50:16|49=INORD|50=S|56=Y48|57=Y4802|6=0.0|11=KODSGWROUOALD|14=0|17=0|20=0|37=29015|39=0|54=1|55=5482|150=D|151=0|109=Y48|378=8|198=20811|10=048|
8=FIX.4.2|9=51|35=0|34=5|49=Y48|52=20110427-14:50:25.923|56=INORD|10=021|
8=FIX.4.2|9=0048|35=0|34=15|52=20110427-14:50:57|49=INORD|56=Y48|10=229|
8=FIX.4.2|9=69|35=A|34=1|49=Y48|52=20110427-14:51:31.238|56=INORD|98=0|108=60|141=Y|10=113|
8=FIX.4.2|9=0065|35=A|34=1|52=20110427-14:52:03|49=INORD|56=Y48|141=Y|98=0|108=60|10=002|
8=FIX.4.2|9=51|35=0|34=2|49=Y48|52=20110427-14:52:31.565|56=INORD|10=019|
8=FIX.4.2|9=0047|35=0|34=2|52=20110427-14:53:03|49=INORD|56=Y48|10=170|
8=FIX.4.2|9=51|35=0|34=3|49=Y48|52=20110427-14:53:31.769|56=INORD|10=027|
8=FIX.4.2|9=0047|35=0|34=3|52=20110427-14:54:03|49=INORD|56=Y48|10=172|
8=FIX.4.2|9=0273|35=8|34=4|52=20110427-14:54:04|49=INORD|50=S|56=Y48|57=Y4802|6=0.0|11=KODWX15SOEDYR|14=0|15=ISK|17=GPCFD1-30456|18=N|20=0|37=29309|38=1000000|39=0|40=2|44=50.0000|528=A|48=IS0000000388|54=1|55=5482|59=0|60=20110427-14:54:04|150=0|151=1000000|9140=Y|5815=23|109=Y48|76=BOOK|10=204|
8=FIX.4.2|9=0162|35=8|34=5|52=20110427-14:54:04|49=INORD|50=S|56=Y48|57=Y4802|6=0.0|11=KODWX15SOEDYR|14=0|17=0|20=0|37=29309|39=0|54=1|55=5482|150=D|151=0|109=Y48|378=8|198=20976|10=246|
8=FIX.4.2|9=0273|35=8|34=6|52=20110427-14:54:44|49=INORD|50=S|56=Y48|57=Y4802|6=0.0|11=KOD3XCBPD3D4K|14=0|15=ISK|17=GPCFD1-30585|18=N|20=0|37=29407|38=1000000|39=0|40=2|44=50.0000|528=A|48=IS0000000388|54=1|55=5482|59=0|60=20110427-14:54:44|150=0|151=1000000|9140=Y|5815=23|109=Y48|76=BOOK|10=135|
8=FIX.4.2|9=0162|35=8|34=7|52=20110427-14:54:44|49=INORD|50=S|56=Y48|57=Y4802|6=0.0|11=KOD3XCBPD3D4K|14=0|17=0|20=0|37=29407|39=0|54=1|55=5482|150=D|151=0|109=Y48|378=8|198=21037|10=159|
8=FIX.4.2|9=51|35=0|34=4|49=Y48|52=20110427-14:54:31.292|56=INORD|10=020|
8=FIX.4.2|9=0047|35=0|34=8|52=20110427-14:55:03|49=INORD|56=Y48|10=178|
8=FIX.4.2|9=69|35=A|34=1|49=Y48|52=20110427-14:57:41.247|56=INORD|98=0|108=60|141=Y|10=120|
8=FIX.4.2|9=0065|35=A|34=1|52=20110427-14:58:13|49=INORD|56=Y48|141=Y|98=0|108=60|10=009|
8=FIX.4.2|9=51|35=0|34=2|49=Y48|52=20110427-14:58:41.510|56=INORD|10=016|
8=FIX.4.2|9=0047|35=0|34=2|52=20110427-14:59:13|49=INORD|56=Y48|10=177|
8=FIX.4.2|9=0273|35=8|34=3|52=20110427-14:59:26|49=INORD|50=S|56=Y48|57=Y4802|6=0.0|11=KOD2TYJ73V75K|14=0|15=ISK|17=GPCFD1-30908|18=N|20=0|37=29662|38=1000000|39=0|40=2|44=50.0000|528=A|48=IS0000000388|54=1|55=5482|59=0|60=20110427-14:59:25|150=0|151=1000000|9140=Y|5815=23|109=Y48|76=BOOK|10=149|
8=FIX.4.2|9=0162|35=8|34=4|52=20110427-14:59:26|49=INORD|50=S|56=Y48|57=Y4802|6=0.0|11=KOD2TYJ73V75K|14=0|17=0|20=0|37=29662|39=0|54=1|55=5482|150=D|151=0|109=Y48|378=8|198=21188|10=177|
8=FIX.4.2|9=51|35=0|34=3|49=Y48|52=20110427-14:59:41.343|56=INORD|10=022|
8=FIX.4.2|9=0047|35=0|34=5|52=20110427-15:00:13|49=INORD|56=Y48|10=167|
8=FIX.4.2|9=69|35=A|34=1|49=Y48|52=20110427-15:01:55.596|56=INORD|98=0|108=60|141=Y|10=122|
8=FIX.4.2|9=0065|35=A|34=1|52=20110427-15:02:27|49=INORD|56=Y48|141=Y|98=0|108=60|10=004|
8=FIX.4.2|9=51|35=0|34=2|49=Y48|52=20110427-15:02:55.861|56=INORD|10=020|
8=FIX.4.2|9=0047|35=0|34=2|52=20110427-15:03:28|49=INORD|56=Y48|10=173|
8=FIX.4.2|9=0273|35=8|34=3|52=20110427-15:04:05|49=INORD|50=S|56=Y48|57=Y4802|6=0.0|11=KODI70SOSRIII|14=0|15=ISK|17=GPCFD1-31077|18=N|20=0|37=29805|38=1000000|39=0|40=2|44=50.0000|528=A|48=IS0000000388|54=1|55=5482|59=0|60=20110427-15:04:05|150=0|151=1000000|9140=Y|5815=23|109=Y48|76=BOOK|10=173|
8=FIX.4.2|9=0162|35=8|34=4|52=20110427-15:04:05|49=INORD|50=S|56=Y48|57=Y4802|6=0.0|11=KODI70SOSRIII|14=0|17=0|20=0|37=29805|39=0|54=1|55=5482|150=D|151=0|109=Y48|378=8|198=21276|10=212|
8=FIX.4.2|9=51|35=0|34=3|49=Y48|52=20110427-15:03:55.651|56=INORD|10=019|
8=FIX.4.2|9=0047|35=0|34=5|52=20110427-15:04:27|49=INORD|56=Y48|10=176|
8=FIX.4.2|9=0290|35=8|34=6|52=20110427-15:04:32|49=INORD|50=S|56=Y48|57=TST814014|128=Y48|129=Y4801|6=0.0|11=15056900000085|14=0|15=ISK|17=GPCFD1-31093|18=N|20=0|37=29822|38=9000|39=0|40=2|44=50.0000|528=A|48=IS0000000388|54=2|55=5482|59=0|60=20110427-15:04:32|150=0|151=9000|9140=Y|5815=23|109=Y48|76=BOOK|10=088|
8=FIX.4.2|9=0185|35=8|34=7|52=20110427-15:04:32|49=INORD|50=S|56=Y48|57=TST814014|128=Y48|129=Y4801|6=0.0|11=15056900000085|14=0|17=0|20=0|37=29822|39=0|54=2|55=5482|150=D|151=0|109=Y48|378=8|198=21291|10=148|
8=FIX.4.2|9=51|35=0|34=4|49=Y48|52=20110427-15:04:55.490|56=INORD|10=022|
8=FIX.4.2|9=0047|35=0|34=8|52=20110427-15:05:27|49=INORD|56=Y48|10=180|
8=FIX.4.2|9=0331|35=8|34=9|52=20110427-15:05:33|49=INORD|50=S|56=Y48|57=Y4802|6=50.0000|11=KOD0C1YASDYEH|14=9000|15=ISK|17=B7463|18=N|20=0|31=50.0000|32=9000|37=28987|38=1000000|39=1|40=2|44=50.0000|528=A|48=IS0000000388|54=1|55=5482|59=0|60=20110427-15:05:33|75=20110427|150=1|151=991000|9140=Y|5815=23|109=Y48|382=1|375=Y48|9882=Y|1003=000007463|10=229|
8=FIX.4.2|9=0347|35=8|34=10|52=20110427-15:05:33|49=INORD|50=S|56=Y48|57=TST814014|128=Y48|129=Y4801|6=50.0000|11=15056900000085|14=9000|15=ISK|17=S7463|18=N|20=0|31=50.0000|32=9000|37=29822|38=9000|39=2|40=2|44=50.0000|528=A|48=IS0000000388|54=2|55=5482|59=0|60=20110427-15:05:33|75=20110427|150=2|151=0|9140=Y|5815=23|109=Y48|382=1|375=Y48|9882=Y|1003=000007463|10=100|
8=FIX.4.2|9=51|35=0|34=5|49=Y48|52=20110427-15:05:55.730|56=INORD|10=021|
8=FIX.4.2|9=0048|35=0|34=11|52=20110427-15:06:27|49=INORD|56=Y48|10=224|
8=FIX.4.2|9=69|35=A|34=1|49=Y48|52=20110427-15:11:22.032|56=INORD|98=0|108=60|141=Y|10=102|
8=FIX.4.2|9=0065|35=A|34=1|52=20110427-15:11:54|49=INORD|56=Y48|141=Y|98=0|108=60|10=004|
8=FIX.4.2|9=0273|35=8|34=2|52=20110427-15:12:48|49=INORD|50=S|56=Y48|57=Y4802|6=0.0|11=KODXWRWHFO1LA|14=0|15=ISK|17=GPCFD1-31200|18=N|20=0|37=29917|38=1000000|39=0|40=2|44=50.0000|528=A|48=IS0000000388|54=1|55=5482|59=0|60=20110427-15:12:48|150=0|151=1000000|9140=Y|5815=23|109=Y48|76=BOOK|10=209|
8=FIX.4.2|9=0162|35=8|34=3|52=20110427-15:12:48|49=INORD|50=S|56=Y48|57=Y4802|6=0.0|11=KODXWRWHFO1LA|14=0|17=0|20=0|37=29917|39=0|54=1|55=5482|150=D|151=0|109=Y48|378=8|198=21365|10=253|
8=FIX.4.2|9=51|35=0|34=2|49=Y48|52=20110427-15:12:22.603|56=INORD|10=009|
8=FIX.4.2|9=0047|35=0|34=4|52=20110427-15:12:54|49=INORD|56=Y48|10=174|
8=FIX.4.2|9=0273|35=8|34=5|52=20110427-15:13:08|49=INORD|50=S|56=Y48|57=Y4802|6=0.0|11=KODV3GJL7KAL5|14=0|15=ISK|17=GPCFD1-31204|18=N|20=0|37=29921|38=1000000|39=0|40=2|44=50.0000|528=A|48=IS0000000388|54=1|55=5482|59=0|60=20110427-15:13:08|150=0|151=1000000|9140=Y|5815=23|109=Y48|76=BOOK|10=132|
8=FIX.4.2|9=0162|35=8|34=6|52=20110427-15:13:08|49=INORD|50=S|56=Y48|57=Y4802|6=0.0|11=KODV3GJL7KAL5|14=0|17=0|20=0|37=29921|39=0|54=1|55=5482|150=D|151=0|109=Y48|378=8|198=21367|10=177|
8=FIX.4.2|9=51|35=0|34=3|49=Y48|52=20110427-15:13:22.973|56=INORD|10=021|
8=FIX.4.2|9=0047|35=0|34=7|52=20110427-15:13:55|49=INORD|56=Y48|10=179|
8=FIX.4.2|9=0273|35=8|34=8|52=20110427-15:14:01|49=INORD|50=S|56=Y48|57=Y4802|6=0.0|11=KODDEB0RE5NN5|14=0|15=ISK|17=GPCFD1-31221|18=N|20=0|37=29941|38=1000000|39=0|40=2|44=50.0000|528=A|48=IS0000000388|54=1|55=5482|59=0|60=20110427-15:14:01|150=0|151=1000000|9140=Y|5815=23|109=Y48|76=BOOK|10=106|
8=FIX.4.2|9=0162|35=8|34=9|52=20110427-15:14:01|49=INORD|50=S|56=Y48|57=Y4802|6=0.0|11=KODDEB0RE5NN5|14=0|17=0|20=0|37=29941|39=0|54=1|55=5482|150=D|151=0|109=Y48|378=8|198=21377|10=159|
8=FIX.4.2|9=0274|35=8|34=10|52=20110427-15:14:13|49=INORD|50=S|56=Y48|57=Y4802|6=0.0|11=KODF5DMNRKLFB|14=0|15=ISK|17=GPCFD1-31223|18=N|20=0|37=29943|38=1000000|39=0|40=2|44=50.0000|528=A|48=IS0000000388|54=1|55=5482|59=0|60=20110427-15:14:13|150=0|151=1000000|9140=Y|5815=23|109=Y48|76=BOOK|10=209|
8=FIX.4.2|9=0163|35=8|34=11|52=20110427-15:14:13|49=INORD|50=S|56=Y48|57=Y4802|6=0.0|11=KODF5DMNRKLFB|14=0|17=0|20=0|37=29943|39=0|54=1|55=5482|150=D|151=0|109=Y48|378=8|198=21378|10=002|
8=FIX.4.2|9=51|35=0|34=4|49=Y48|52=20110427-15:14:22.150|56=INORD|10=010|
8=FIX.4.2|9=0048|35=0|34=12|52=20110427-15:14:54|49=INORD|56=Y48|10=224|
8=FIX.4.2|9=0274|35=8|34=13|52=20110427-15:15:21|49=INORD|50=S|56=Y48|57=Y4802|6=0.0|11=KODABXL7CLORY|14=0|15=ISK|17=GPCFD1-31312|18=N|20=0|37=29997|38=1000000|39=0|40=2|44=50.0000|528=A|48=IS0000000388|54=1|55=5482|59=0|60=20110427-15:15:21|150=0|151=1000000|9140=Y|5815=23|109=Y48|76=BOOK|10=248|
8=FIX.4.2|9=0163|35=8|34=14|52=20110427-15:15:21|49=INORD|50=S|56=Y48|57=Y4802|6=0.0|11=KODABXL7CLORY|14=0|17=0|20=0|37=29997|39=0|54=1|55=5482|150=D|151=0|109=Y48|378=8|198=21405|10=033|
8=FIX.4.2|9=0274|35=8|34=15|52=20110427-15:15:32|49=INORD|50=S|56=Y48|57=Y4802|6=0.0|11=KODRWYFHINDCH|14=0|15=ISK|17=GPCFD1-31317|18=N|20=0|37=30005|38=1000000|39=0|40=2|44=50.0000|528=A|48=IS0000000388|54=1|55=5482|59=0|60=20110427-15:15:32|150=0|151=1000000|9140=Y|5815=23|109=Y48|76=BOOK|10=246|
8=FIX.4.2|9=0163|35=8|34=16|52=20110427-15:15:32|49=INORD|50=S|56=Y48|57=Y4802|6=0.0|11=KODRWYFHINDCH|14=0|17=0|20=0|37=30005|39=0|54=1|55=5482|150=D|151=0|109=Y48|378=8|198=21410|10=020|
8=FIX.4.2|9=0332|35=8|34=17|52=20110427-15:15:41|49=INORD|50=S|56=Y48|57=Y4802|6=50.0000|11=KOD0C1YASDYEH|14=1000000|15=ISK|17=B7473|18=N|20=0|31=50.0000|32=991000|37=28987|38=1000000|39=2|40=2|44=50.0000|528=A|48=IS0000000388|54=1|55=5482|59=0|60=20110427-15:15:41|75=20110427|150=2|151=0|9140=Y|5815=23|109=Y48|382=1|375=Y48|9882=X|1003=000007473|10=007|
8=FIX.4.2|9=0276|35=8|34=18|52=20110427-15:15:41|49=INORD|50=S|56=Y48|57=Y4802|6=0.0|11=KODM7HF72LRBH|14=0|15=ISK|17=GPCFD1-31319|18=N|20=0|37=30007|38=14991000|39=0|40=2|44=50.0000|528=A|48=IS0000000388|54=2|55=5482|59=0|60=20110427-15:15:41|150=0|151=14991000|9140=Y|5815=23|109=Y48|76=BOOK|10=059|
8=FIX.4.2|9=0163|35=8|34=19|52=20110427-15:15:41|49=INORD|50=S|56=Y48|57=Y4802|6=0.0|11=KODM7HF72LRBH|14=0|17=0|20=0|37=30007|39=0|54=2|55=5482|150=D|151=0|109=Y48|378=8|198=21411|10=200|
8=FIX.4.2|9=0339|35=8|34=20|52=20110427-15:15:41|49=INORD|50=S|56=Y48|57=Y4802|6=50.0000|11=KODM7HF72LRBH|14=991000|15=ISK|17=S7473|18=N|20=0|31=50.0000|32=991000|37=30007|38=14991000|39=1|40=2|44=50.0000|528=A|48=IS0000000388|54=2|55=5482|59=0|60=20110427-15:15:41|75=20110427|150=1|151=14000000|9140=Y|5815=23|109=Y48|382=1|375=Y48|9882=X|1003=000007473|10=102|
8=FIX.4.2|9=0333|35=8|34=21|52=20110427-15:15:41|49=INORD|50=S|56=Y48|57=Y4802|6=50.0000|11=KODPIPPUYUFIU|14=1000000|15=ISK|17=B7475|18=N|20=0|31=50.0000|32=1000000|37=29001|38=1000000|39=2|40=2|44=50.0000|528=A|48=IS0000000388|54=1|55=5482|59=0|60=20110427-15:15:41|75=20110427|150=2|151=0|9140=Y|5815=23|109=Y48|382=1|375=Y48|9882=X|1003=000007475|10=116|
8=FIX.4.2|9=0333|35=8|34=22|52=20110427-15:15:41|49=INORD|50=S|56=Y48|57=Y4802|6=50.0000|11=KODSGWROUOALD|14=1000000|15=ISK|17=B7477|18=N|20=0|31=50.0000|32=1000000|37=29015|38=1000000|39=2|40=2|44=50.0000|528=A|48=IS0000000388|54=1|55=5482|59=0|60=20110427-15:15:41|75=20110427|150=2|151=0|9140=Y|5815=23|109=Y48|382=1|375=Y48|9882=X|1003=000007477|10=101|
8=FIX.4.2|9=0341|35=8|34=23|52=20110427-15:15:41|49=INORD|50=S|56=Y48|57=Y4802|6=50.0000|11=KODM7HF72LRBH|14=1991000|15=ISK|17=S7474|18=N|20=0|31=50.0000|32=1000000|37=30007|38=14991000|39=1|40=2|44=50.0000|528=A|48=IS0000000388|54=2|55=5482|59=0|60=20110427-15:15:41|75=20110427|150=1|151=13000000|9140=Y|5815=23|109=Y48|382=1|375=Y48|9882=X|1003=000007474|10=178|
8=FIX.4.2|9=0333|35=8|34=24|52=20110427-15:15:41|49=INORD|50=S|56=Y48|57=Y4802|6=50.0000|11=KODSD4R21HQVJ|14=1000000|15=ISK|17=B7474|18=N|20=0|31=50.0000|32=1000000|37=28997|38=1000000|39=2|40=2|44=50.0000|528=A|48=IS0000000388|54=1|55=5482|59=0|60=20110427-15:15:41|75=20110427|150=2|151=0|9140=Y|5815=23|109=Y48|382=1|375=Y48|9882=X|1003=000007474|10=037|
8=FIX.4.2|9=0333|35=8|34=25|52=20110427-15:15:41|49=INORD|50=S|56=Y48|57=Y4802|6=50.0000|11=KOD3XCBPD3D4K|14=1000000|15=ISK|17=B7479|18=N|20=0|31=50.0000|32=1000000|37=29407|38=1000000|39=2|40=2|44=50.0000|528=A|48=IS0000000388|54=1|55=5482|59=0|60=20110427-15:15:41|75=20110427|150=2|151=0|9140=Y|5815=23|109=Y48|382=1|375=Y48|9882=X|1003=000007479|10=004|
8=FIX.4.2|9=0341|35=8|34=26|52=20110427-15:15:41|49=INORD|50=S|56=Y48|57=Y4802|6=50.0000|11=KODM7HF72LRBH|14=2991000|15=ISK|17=S7475|18=N|20=0|31=50.0000|32=1000000|37=30007|38=14991000|39=1|40=2|44=50.0000|528=A|48=IS0000000388|54=2|55=5482|59=0|60=20110427-15:15:41|75=20110427|150=1|151=12000000|9140=Y|5815=23|109=Y48|382=1|375=Y48|9882=X|1003=000007475|10=183|
8=FIX.4.2|9=0333|35=8|34=27|52=20110427-15:15:41|49=INORD|50=S|56=Y48|57=Y4802|6=50.0000|11=KOD2TYJ73V75K|14=1000000|15=ISK|17=B7480|18=N|20=0|31=50.0000|32=1000000|37=29662|38=1000000|39=2|40=2|44=50.0000|528=A|48=IS0000000388|54=1|55=5482|59=0|60=20110427-15:15:41|75=20110427|150=2|151=0|9140=Y|5815=23|109=Y48|382=1|375=Y48|9882=X|1003=000007480|10=255|
8=FIX.4.2|9=0341|35=8|34=28|52=20110427-15:15:41|49=INORD|50=S|56=Y48|57=Y4802|6=50.0000|11=KODM7HF72LRBH|14=3991000|15=ISK|17=S7476|18=N|20=0|31=50.0000|32=1000000|37=30007|38=14991000|39=1|40=2|44=50.0000|528=A|48=IS0000000388|54=2|55=5482|59=0|60=20110427-15:15:41|75=20110427|150=1|151=11000000|9140=Y|5815=23|109=Y48|382=1|375=Y48|9882=X|1003=000007476|10=187|
8=FIX.4.2|9=0333|35=8|34=29|52=20110427-15:15:41|49=INORD|50=S|56=Y48|57=Y4802|6=50.0000|11=KODXWRWHFO1LA|14=1000000|15=ISK|17=B7482|18=N|20=0|31=50.0000|32=1000000|37=29917|38=1000000|39=2|40=2|44=50.0000|528=A|48=IS0000000388|54=1|55=5482|59=0|60=20110427-15:15:41|75=20110427|150=2|151=0|9140=Y|5815=23|109=Y48|382=1|375=Y48|9882=X|1003=000007482|10=091|
8=FIX.4.2|9=0333|35=8|34=30|52=20110427-15:15:41|49=INORD|50=S|56=Y48|57=Y4802|6=50.0000|11=KODXVNAXJOSAO|14=1000000|15=ISK|17=B7476|18=N|20=0|31=50.0000|32=1000000|37=29009|38=1000000|39=2|40=2|44=50.0000|528=A|48=IS0000000388|54=1|55=5482|59=0|60=20110427-15:15:41|75=20110427|150=2|151=0|9140=Y|5815=23|109=Y48|382=1|375=Y48|9882=X|1003=000007476|10=111|
8=FIX.4.2|9=0333|35=8|34=31|52=20110427-15:15:41|49=INORD|50=S|56=Y48|57=Y4802|6=50.0000|11=KODV3GJL7KAL5|14=1000000|15=ISK|17=B7483|18=N|20=0|31=50.0000|32=1000000|37=29921|38=1000000|39=2|40=2|44=50.0000|528=A|48=IS0000000388|54=1|55=5482|59=0|60=20110427-15:15:41|75=20110427|150=2|151=0|9140=Y|5815=23|109=Y48|382=1|375=Y48|9882=X|1003=000007483|10=008|
8=FIX.4.2|9=0341|35=8|34=32|52=20110427-15:15:41|49=INORD|50=S|56=Y48|57=Y4802|6=50.0000|11=KODM7HF72LRBH|14=4991000|15=ISK|17=S7477|18=N|20=0|31=50.0000|32=1000000|37=30007|38=14991000|39=1|40=2|44=50.0000|528=A|48=IS0000000388|54=2|55=5482|59=0|60=20110427-15:15:41|75=20110427|150=1|151=10000000|9140=Y|5815=23|109=Y48|382=1|375=Y48|9882=X|1003=000007477|10=184|
8=FIX.4.2|9=0333|35=8|34=33|52=20110427-15:15:41|49=INORD|50=S|56=Y48|57=Y4802|6=50.0000|11=KODF5DMNRKLFB|14=1000000|15=ISK|17=B7485|18=N|20=0|31=50.0000|32=1000000|37=29943|38=1000000|39=2|40=2|44=50.0000|528=A|48=IS0000000388|54=1|55=5482|59=0|60=20110427-15:15:41|75=20110427|150=2|151=0|9140=Y|5815=23|109=Y48|382=1|375=Y48|9882=X|1003=000007485|10=051|
8=FIX.4.2|9=0340|35=8|34=34|52=20110427-15:15:41|49=INORD|50=S|56=Y48|57=Y4802|6=50.0000|11=KODM7HF72LRBH|14=5991000|15=ISK|17=S7478|18=N|20=0|31=50.0000|32=1000000|37=30007|38=14991000|39=1|40=2|44=50.0000|528=A|48=IS0000000388|54=2|55=5482|59=0|60=20110427-15:15:41|75=20110427|150=1|151=9000000|9140=Y|5815=23|109=Y48|382=1|375=Y48|9882=X|1003=000007478|10=148|
8=FIX.4.2|9=0333|35=8|34=35|52=20110427-15:15:41|49=INORD|50=S|56=Y48|57=Y4802|6=50.0000|11=KODRWYFHINDCH|14=1000000|15=ISK|17=B7487|18=N|20=0|31=50.0000|32=1000000|37=30005|38=1000000|39=2|40=2|44=50.0000|528=A|48=IS0000000388|54=1|55=5482|59=0|60=20110427-15:15:41|75=20110427|150=2|151=0|9140=Y|5815=23|109=Y48|382=1|375=Y48|9882=X|1003=000007487|10=081|
8=FIX.4.2|9=0333|35=8|34=36|52=20110427-15:15:41|49=INORD|50=S|56=Y48|57=Y4802|6=50.0000|11=KODWX15SOEDYR|14=1000000|15=ISK|17=B7478|18=N|20=0|31=50.0000|32=1000000|37=29309|38=1000000|39=2|40=2|44=50.0000|528=A|48=IS0000000388|54=1|55=5482|59=0|60=20110427-15:15:41|75=20110427|150=2|151=0|9140=Y|5815=23|109=Y48|382=1|375=Y48|9882=X|1003=000007478|10=086|
8=FIX.4.2|9=0340|35=8|34=37|52=20110427-15:15:41|49=INORD|50=S|56=Y48|57=Y4802|6=50.0000|11=KODM7HF72LRBH|14=6991000|15=ISK|17=S7479|18=N|20=0|31=50.0000|32=1000000|37=30007|38=14991000|39=1|40=2|44=50.0000|528=A|48=IS0000000388|54=2|55=5482|59=0|60=20110427-15:15:41|75=20110427|150=1|151=8000000|9140=Y|5815=23|109=Y48|382=1|375=Y48|9882=X|1003=000007479|10=153|
8=FIX.4.2|9=0340|35=8|34=38|52=20110427-15:15:41|49=INORD|50=S|56=Y48|57=Y4802|6=50.0000|11=KODM7HF72LRBH|14=7991000|15=ISK|17=S7480|18=N|20=0|31=50.0000|32=1000000|37=30007|38=14991000|39=1|40=2|44=50.0000|528=A|48=IS0000000388|54=2|55=5482|59=0|60=20110427-15:15:41|75=20110427|150=1|151=7000000|9140=Y|5815=23|109=Y48|382=1|375=Y48|9882=X|1003=000007480|10=138|
8=FIX.4.2|9=0340|35=8|34=39|52=20110427-15:15:41|49=INORD|50=S|56=Y48|57=Y4802|6=50.0000|11=KODM7HF72LRBH|14=8991000|15=ISK|17=S7481|18=N|20=0|31=50.0000|32=1000000|37=30007|38=14991000|39=1|40=2|44=50.0000|528=A|48=IS0000000388|54=2|55=5482|59=0|60=20110427-15:15:41|75=20110427|150=1|151=6000000|9140=Y|5815=23|109=Y48|382=1|375=Y48|9882=X|1003=000007481|10=141|
8=FIX.4.2|9=0333|35=8|34=40|52=20110427-15:15:41|49=INORD|50=S|56=Y48|57=Y4802|6=50.0000|11=KODI70SOSRIII|14=1000000|15=ISK|17=B7481|18=N|20=0|31=50.0000|32=1000000|37=29805|38=1000000|39=2|40=2|44=50.0000|528=A|48=IS0000000388|54=1|55=5482|59=0|60=20110427-15:15:41|75=20110427|150=2|151=0|9140=Y|5815=23|109=Y48|382=1|375=Y48|9882=X|1003=000007481|10=045|
8=FIX.4.2|9=0340|35=8|34=41|52=20110427-15:15:41|49=INORD|50=S|56=Y48|57=Y4802|6=50.0000|11=KODM7HF72LRBH|14=9991000|15=ISK|17=S7482|18=N|20=0|31=50.0000|32=1000000|37=30007|38=14991000|39=1|40=2|44=50.0000|528=A|48=IS0000000388|54=2|55=5482|59=0|60=20110427-15:15:41|75=20110427|150=1|151=5000000|9140=Y|5815=23|109=Y48|382=1|375=Y48|9882=X|1003=000007482|10=136|
8=FIX.4.2|9=0341|35=8|34=42|52=20110427-15:15:41|49=INORD|50=S|56=Y48|57=Y4802|6=50.0000|11=KODM7HF72LRBH|14=10991000|15=ISK|17=S7483|18=N|20=0|31=50.0000|32=1000000|37=30007|38=14991000|39=1|40=2|44=50.0000|528=A|48=IS0000000388|54=2|55=5482|59=0|60=20110427-15:15:41|75=20110427|150=1|151=4000000|9140=Y|5815=23|109=Y48|382=1|375=Y48|9882=X|1003=000007483|10=179|
8=FIX.4.2|9=0341|35=8|34=43|52=20110427-15:15:41|49=INORD|50=S|56=Y48|57=Y4802|6=50.0000|11=KODM7HF72LRBH|14=11991000|15=ISK|17=S7484|18=N|20=0|31=50.0000|32=1000000|37=30007|38=14991000|39=1|40=2|44=50.0000|528=A|48=IS0000000388|54=2|55=5482|59=0|60=20110427-15:15:41|75=20110427|150=1|151=3000000|9140=Y|5815=23|109=Y48|382=1|375=Y48|9882=X|1003=000007484|10=182|
8=FIX.4.2|9=0333|35=8|34=44|52=20110427-15:15:41|49=INORD|50=S|56=Y48|57=Y4802|6=50.0000|11=KODDEB0RE5NN5|14=1000000|15=ISK|17=B7484|18=N|20=0|31=50.0000|32=1000000|37=29941|38=1000000|39=2|40=2|44=50.0000|528=A|48=IS0000000388|54=1|55=5482|59=0|60=20110427-15:15:41|75=20110427|150=2|151=0|9140=Y|5815=23|109=Y48|382=1|375=Y48|9882=X|1003=000007484|10=254|
8=FIX.4.2|9=0341|35=8|34=45|52=20110427-15:15:41|49=INORD|50=S|56=Y48|57=Y4802|6=50.0000|11=KODM7HF72LRBH|14=12991000|15=ISK|17=S7485|18=N|20=0|31=50.0000|32=1000000|37=30007|38=14991000|39=1|40=2|44=50.0000|528=A|48=IS0000000388|54=2|55=5482|59=0|60=20110427-15:15:41|75=20110427|150=1|151=2000000|9140=Y|5815=23|109=Y48|382=1|375=Y48|9882=X|1003=000007485|10=186|
8=FIX.4.2|9=0341|35=8|34=46|52=20110427-15:15:41|49=INORD|50=S|56=Y48|57=Y4802|6=50.0000|11=KODM7HF72LRBH|14=13991000|15=ISK|17=S7486|18=N|20=0|31=50.0000|32=1000000|37=30007|38=14991000|39=1|40=2|44=50.0000|528=A|48=IS0000000388|54=2|55=5482|59=0|60=20110427-15:15:41|75=20110427|150=1|151=1000000|9140=Y|5815=23|109=Y48|382=1|375=Y48|9882=X|1003=000007486|10=189|
8=FIX.4.2|9=0333|35=8|34=47|52=20110427-15:15:41|49=INORD|50=S|56=Y48|57=Y4802|6=50.0000|11=KODABXL7CLORY|14=1000000|15=ISK|17=B7486|18=N|20=0|31=50.0000|32=1000000|37=29997|38=1000000|39=2|40=2|44=50.0000|528=A|48=IS0000000388|54=1|55=5482|59=0|60=20110427-15:15:41|75=20110427|150=2|151=0|9140=Y|5815=23|109=Y48|382=1|375=Y48|9882=X|1003=000007486|10=095|
8=FIX.4.2|9=0335|35=8|34=48|52=20110427-15:15:41|49=INORD|50=S|56=Y48|57=Y4802|6=50.0000|11=KODM7HF72LRBH|14=14991000|15=ISK|17=S7487|18=N|20=0|31=50.0000|32=1000000|37=30007|38=14991000|39=2|40=2|44=50.0000|528=A|48=IS0000000388|54=2|55=5482|59=0|60=20110427-15:15:41|75=20110427|150=2|151=0|9140=Y|5815=23|109=Y48|382=1|375=Y48|9882=X|1003=000007487|10=166|
8=FIX.4.2|9=51|35=0|34=5|49=Y48|52=20110427-15:15:22.515|56=INORD|10=017|
8=FIX.4.2|9=0048|35=0|34=49|52=20110427-15:15:54|49=INORD|56=Y48|10=235|
8=FIX.4.2|9=0350|35=8|34=50|52=20110427-15:15:58|49=INORD|50=S|56=Y48|57=TST814014|128=Y48|129=Y4801|6=53.0000|11=15056900000040|14=10000|15=ISK|17=B7488|18=N|20=0|31=53.0000|32=10000|37=8070|38=10000|39=2|40=2|44=53.0000|528=A|48=IS0000013464|54=1|55=37744|59=0|60=20110427-15:15:58|75=20110427|150=2|151=0|9140=Y|5815=23|109=Y48|382=1|375=Y48|9882=X|1003=000007488|10=226|
8=FIX.4.2|9=0273|35=8|34=51|52=20110427-15:15:58|49=INORD|50=S|56=Y48|57=Y4802|6=0.0|11=KODIKXB1NXMN7|14=0|15=ISK|17=GPCFD1-31325|18=N|20=0|37=30013|38=830000|39=0|40=2|44=50.0000|528=A|48=IS0000013464|54=2|55=37744|59=0|60=20110427-15:15:58|150=0|151=830000|9140=Y|5815=23|109=Y48|76=BOOK|10=206|
8=FIX.4.2|9=0164|35=8|34=52|52=20110427-15:15:58|49=INORD|50=S|56=Y48|57=Y4802|6=0.0|11=KODIKXB1NXMN7|14=0|17=0|20=0|37=30013|39=0|54=2|55=37744|150=D|151=0|109=Y48|378=8|198=21416|10=058|
8=FIX.4.2|9=0353|35=8|34=53|52=20110427-15:15:58|49=INORD|50=S|56=Y48|57=TST814014|128=Y48|129=Y4801|6=52.0000|11=15056900000029|14=100000|15=ISK|17=B7489|18=N|20=0|31=52.0000|32=100000|37=7672|38=100000|39=2|40=2|44=52.0000|528=A|48=IS0000013464|54=1|55=37744|59=0|60=20110427-15:15:58|75=20110427|150=2|151=0|9140=Y|5815=23|109=Y48|382=1|375=Y48|9882=X|1003=000007489|10=133|
8=FIX.4.2|9=0334|35=8|34=54|52=20110427-15:15:58|49=INORD|50=S|56=Y48|57=Y4802|6=53.0000|11=KODIKXB1NXMN7|14=10000|15=ISK|17=S7488|18=N|20=0|31=53.0000|32=10000|37=30013|38=830000|39=1|40=2|44=50.0000|528=A|48=IS0000013464|54=2|55=37744|59=0|60=20110427-15:15:58|75=20110427|150=1|151=820000|9140=Y|5815=23|109=Y48|382=1|375=Y48|9882=X|1003=000007488|10=164|
8=FIX.4.2|9=0353|35=8|34=55|52=20110427-15:15:58|49=INORD|50=S|56=Y48|57=TST814014|128=Y48|129=Y4801|6=51.0000|11=15056900000028|14=100000|15=ISK|17=B7490|18=N|20=0|31=51.0000|32=100000|37=7664|38=100000|39=2|40=2|44=51.0000|528=A|48=IS0000013464|54=1|55=37744|59=0|60=20110427-15:15:58|75=20110427|150=2|151=0|9140=Y|5815=23|109=Y48|382=1|375=Y48|9882=X|1003=000007490|10=116|
8=FIX.4.2|9=0336|35=8|34=56|52=20110427-15:15:58|49=INORD|50=S|56=Y48|57=Y4802|6=52.0909|11=KODIKXB1NXMN7|14=110000|15=ISK|17=S7489|18=N|20=0|31=52.0000|32=100000|37=30013|38=830000|39=1|40=2|44=50.0000|528=A|48=IS0000013464|54=2|55=37744|59=0|60=20110427-15:15:58|75=20110427|150=1|151=720000|9140=Y|5815=23|109=Y48|382=1|375=Y48|9882=X|1003=000007489|10=026|
8=FIX.4.2|9=0350|35=8|34=57|52=20110427-15:15:58|49=INORD|50=S|56=Y48|57=TST814014|128=Y48|129=Y4801|6=50.0000|11=15056900000031|14=10000|15=ISK|17=B7495|18=N|20=0|31=50.0000|32=10000|37=7806|38=10000|39=2|40=2|44=50.0000|528=A|48=IS0000013464|54=1|55=37744|59=0|60=20110427-15:15:58|75=20110427|150=2|151=0|9140=Y|5815=23|109=Y48|382=1|375=Y48|9882=X|1003=000007495|10=226|
8=FIX.4.2|9=0336|35=8|34=58|52=20110427-15:15:58|49=INORD|50=S|56=Y48|57=Y4802|6=51.5714|11=KODIKXB1NXMN7|14=210000|15=ISK|17=S7490|18=N|20=0|31=51.0000|32=100000|37=30013|38=830000|39=1|40=2|44=50.0000|528=A|48=IS0000013464|54=2|55=37744|59=0|60=20110427-15:15:58|75=20110427|150=1|151=620000|9140=Y|5815=23|109=Y48|382=1|375=Y48|9882=X|1003=000007490|10=009|
8=FIX.4.2|9=0350|35=8|34=59|52=20110427-15:15:58|49=INORD|50=S|56=Y48|57=TST814014|128=Y48|129=Y4801|6=50.0000|11=15056900000033|14=10000|15=ISK|17=B7497|18=N|20=0|31=50.0000|32=10000|37=7842|38=10000|39=2|40=2|44=50.0000|528=A|48=IS0000013464|54=1|55=37744|59=0|60=20110427-15:15:58|75=20110427|150=2|151=0|9140=Y|5815=23|109=Y48|382=1|375=Y48|9882=X|1003=000007497|10=234|
8=FIX.4.2|9=0335|35=8|34=60|52=20110427-15:15:58|49=INORD|50=S|56=Y48|57=Y4802|6=51.5454|11=KODIKXB1NXMN7|14=220000|15=ISK|17=S7491|18=N|20=0|31=51.0000|32=10000|37=30013|38=830000|39=1|40=2|44=50.0000|528=A|48=IS0000013464|54=2|55=37744|59=0|60=20110427-15:15:58|75=20110427|150=1|151=610000|9140=Y|5815=23|109=Y48|382=1|375=Y48|9882=X|1003=000007491|10=212|
8=FIX.4.2|9=0350|35=8|34=61|52=20110427-15:15:58|49=INORD|50=S|56=Y48|57=TST814014|128=Y48|129=Y4801|6=51.0000|11=15056900000042|14=10000|15=ISK|17=B7491|18=N|20=0|31=51.0000|32=10000|37=8078|38=10000|39=2|40=2|44=51.0000|528=A|48=IS0000013464|54=1|55=37744|59=0|60=20110427-15:15:58|75=20110427|150=2|151=0|9140=Y|5815=23|109=Y48|382=1|375=Y48|9882=X|1003=000007491|10=220|
8=FIX.4.2|9=0353|35=8|34=62|52=20110427-15:15:58|49=INORD|50=S|56=Y48|57=TST814014|128=Y48|129=Y4801|6=50.0000|11=15056900000036|14=100000|15=ISK|17=B7500|18=N|20=0|31=50.0000|32=100000|37=8033|38=100000|39=2|40=2|44=50.0000|528=A|48=IS0000013464|54=1|55=37744|59=0|60=20110427-15:15:58|75=20110427|150=2|151=0|9140=Y|5815=23|109=Y48|382=1|375=Y48|9882=X|1003=000007500|10=085|
8=FIX.4.2|9=0335|35=8|34=63|52=20110427-15:15:58|49=INORD|50=S|56=Y48|57=Y4802|6=51.4782|11=KODIKXB1NXMN7|14=230000|15=ISK|17=S7492|18=N|20=0|31=50.0000|32=10000|37=30013|38=830000|39=1|40=2|44=50.0000|528=A|48=IS0000013464|54=2|55=37744|59=0|60=20110427-15:15:58|75=20110427|150=1|151=600000|9140=Y|5815=23|109=Y48|382=1|375=Y48|9882=X|1003=000007492|10=219|
8=FIX.4.2|9=0353|35=8|34=64|52=20110427-15:15:58|49=INORD|50=S|56=Y48|57=TST814014|128=Y48|129=Y4801|6=50.0000|11=15056900000038|14=100000|15=ISK|17=B7502|18=N|20=0|31=50.0000|32=100000|37=8056|38=100000|39=2|40=2|44=50.0000|528=A|48=IS0000013464|54=1|55=37744|59=0|60=20110427-15:15:58|75=20110427|150=2|151=0|9140=Y|5815=23|109=Y48|382=1|375=Y48|9882=X|1003=000007502|10=098|
8=FIX.4.2|9=0350|35=8|34=65|52=20110427-15:15:58|49=INORD|50=S|56=Y48|57=TST814014|128=Y48|129=Y4801|6=50.0000|11=15056900000026|14=10000|15=ISK|17=B7492|18=N|20=0|31=50.0000|32=10000|37=7135|38=10000|39=2|40=2|44=50.0000|528=A|48=IS0000013464|54=1|55=37744|59=0|60=20110427-15:15:58|75=20110427|150=2|151=0|9140=Y|5815=23|109=Y48|382=1|375=Y48|9882=X|1003=000007492|10=218|
8=FIX.4.2|9=0350|35=8|34=66|52=20110427-15:15:58|49=INORD|50=S|56=Y48|57=TST814014|128=Y48|129=Y4801|6=50.0000|11=15056900000039|14=10000|15=ISK|17=B7503|18=N|20=0|31=50.0000|32=10000|37=8061|38=10000|39=2|40=2|44=50.0000|528=A|48=IS0000013464|54=1|55=37744|59=0|60=20110427-15:15:58|75=20110427|150=2|151=0|9140=Y|5815=23|109=Y48|382=1|375=Y48|9882=X|1003=000007503|10=208|
8=FIX.4.2|9=0335|35=8|34=67|52=20110427-15:15:58|49=INORD|50=S|56=Y48|57=Y4802|6=51.4166|11=KODIKXB1NXMN7|14=240000|15=ISK|17=S7493|18=N|20=0|31=50.0000|32=10000|37=30013|38=830000|39=1|40=2|44=50.0000|528=A|48=IS0000013464|54=2|55=37744|59=0|60=20110427-15:15:58|75=20110427|150=1|151=590000|9140=Y|5815=23|109=Y48|382=1|375=Y48|9882=X|1003=000007493|10=230|
8=FIX.4.2|9=0350|35=8|34=68|52=20110427-15:15:58|49=INORD|50=S|56=Y48|57=TST814014|128=Y48|129=Y4801|6=50.0000|11=15056900000041|14=10000|15=ISK|17=B7504|18=N|20=0|31=50.0000|32=10000|37=8074|38=10000|39=2|40=2|44=50.0000|528=A|48=IS0000013464|54=1|55=37744|59=0|60=20110427-15:15:58|75=20110427|150=2|151=0|9140=Y|5815=23|109=Y48|382=1|375=Y48|9882=X|1003=000007504|10=209|
8=FIX.4.2|9=0350|35=8|34=69|52=20110427-15:15:58|49=INORD|50=S|56=Y48|57=TST814014|128=Y48|129=Y4801|6=50.0000|11=15056900000027|14=10000|15=ISK|17=B7493|18=N|20=0|31=50.0000|32=10000|37=7641|38=10000|39=2|40=2|44=50.0000|528=A|48=IS0000013464|54=1|55=37744|59=0|60=20110427-15:15:58|75=20110427|150=2|151=0|9140=Y|5815=23|109=Y48|382=1|375=Y48|9882=X|1003=000007493|10=227|
8=FIX.4.2|9=0350|35=8|34=70|52=20110427-15:15:58|49=INORD|50=S|56=Y48|57=TST814014|128=Y48|129=Y4801|6=50.0000|11=15056900000051|14=10000|15=ISK|17=B7505|18=N|20=0|31=50.0000|32=10000|37=9723|38=10000|39=2|40=2|44=50.0000|528=A|48=IS0000013464|54=1|55=37744|59=0|60=20110427-15:15:58|75=20110427|150=2|151=0|9140=Y|5815=23|109=Y48|382=1|375=Y48|9882=X|1003=000007505|10=207|
8=FIX.4.2|9=0336|35=8|34=71|52=20110427-15:15:58|49=INORD|50=S|56=Y48|57=Y4802|6=51.0000|11=KODIKXB1NXMN7|14=340000|15=ISK|17=S7494|18=N|20=0|31=50.0000|32=100000|37=30013|38=830000|39=1|40=2|44=50.0000|528=A|48=IS0000013464|54=2|55=37744|59=0|60=20110427-15:15:58|75=20110427|150=1|151=490000|9140=Y|5815=23|109=Y48|382=1|375=Y48|9882=X|1003=000007494|10=003|
8=FIX.4.2|9=0353|35=8|34=72|52=20110427-15:15:58|49=INORD|50=S|56=Y48|57=TST814014|128=Y48|129=Y4801|6=50.0000|11=15056900000030|14=100000|15=ISK|17=B7494|18=N|20=0|31=50.0000|32=100000|37=7804|38=100000|39=2|40=2|44=50.0000|528=A|48=IS0000013464|54=1|55=37744|59=0|60=20110427-15:15:58|75=20110427|150=2|151=0|9140=Y|5815=23|109=Y48|382=1|375=Y48|9882=X|1003=000007494|10=109|
8=FIX.4.2|9=0335|35=8|34=73|52=20110427-15:15:58|49=INORD|50=S|56=Y48|57=Y4802|6=50.9714|11=KODIKXB1NXMN7|14=350000|15=ISK|17=S7495|18=N|20=0|31=50.0000|32=10000|37=30013|38=830000|39=1|40=2|44=50.0000|528=A|48=IS0000013464|54=2|55=37744|59=0|60=20110427-15:15:58|75=20110427|150=1|151=480000|9140=Y|5815=23|109=Y48|382=1|375=Y48|9882=X|1003=000007495|10=234|
8=FIX.4.2|9=0336|35=8|34=74|52=20110427-15:15:58|49=INORD|50=S|56=Y48|57=Y4802|6=50.7555|11=KODIKXB1NXMN7|14=450000|15=ISK|17=S7496|18=N|20=0|31=50.0000|32=100000|37=30013|38=830000|39=1|40=2|44=50.0000|528=A|48=IS0000013464|54=2|55=37744|59=0|60=20110427-15:15:58|75=20110427|150=1|151=380000|9140=Y|5815=23|109=Y48|382=1|375=Y48|9882=X|1003=000007496|10=031|
8=FIX.4.2|9=0353|35=8|34=75|52=20110427-15:15:58|49=INORD|50=S|56=Y48|57=TST814014|128=Y48|129=Y4801|6=50.0000|11=15056900000032|14=100000|15=ISK|17=B7496|18=N|20=0|31=50.0000|32=100000|37=7808|38=100000|39=2|40=2|44=50.0000|528=A|48=IS0000013464|54=1|55=37744|59=0|60=20110427-15:15:58|75=20110427|150=2|151=0|9140=Y|5815=23|109=Y48|382=1|375=Y48|9882=X|1003=000007496|10=122|
8=FIX.4.2|9=0335|35=8|34=76|52=20110427-15:15:58|49=INORD|50=S|56=Y48|57=Y4802|6=50.7391|11=KODIKXB1NXMN7|14=460000|15=ISK|17=S7497|18=N|20=0|31=50.0000|32=10000|37=30013|38=830000|39=1|40=2|44=50.0000|528=A|48=IS0000013464|54=2|55=37744|59=0|60=20110427-15:15:58|75=20110427|150=1|151=370000|9140=Y|5815=23|109=Y48|382=1|375=Y48|9882=X|1003=000007497|10=240|
8=FIX.4.2|9=0335|35=8|34=77|52=20110427-15:15:58|49=INORD|50=S|56=Y48|57=Y4802|6=50.7234|11=KODIKXB1NXMN7|14=470000|15=ISK|17=S7498|18=N|20=0|31=50.0000|32=10000|37=30013|38=830000|39=1|40=2|44=50.0000|528=A|48=IS0000013464|54=2|55=37744|59=0|60=20110427-15:15:58|75=20110427|150=1|151=360000|9140=Y|5815=23|109=Y48|382=1|375=Y48|9882=X|1003=000007498|10=239|
8=FIX.4.2|9=0350|35=8|34=78|52=20110427-15:15:58|49=INORD|50=S|56=Y48|57=TST814014|128=Y48|129=Y4801|6=50.0000|11=15056900000034|14=10000|15=ISK|17=B7498|18=N|20=0|31=50.0000|32=10000|37=7889|38=10000|39=2|40=2|44=50.0000|528=A|48=IS0000013464|54=1|55=37744|59=0|60=20110427-15:15:58|75=20110427|150=2|151=0|9140=Y|5815=23|109=Y48|382=1|375=Y48|9882=X|1003=000007498|10=249|
8=FIX.4.2|9=0335|35=8|34=79|52=20110427-15:15:58|49=INORD|50=S|56=Y48|57=Y4802|6=50.7083|11=KODIKXB1NXMN7|14=480000|15=ISK|17=S7499|18=N|20=0|31=50.0000|32=10000|37=30013|38=830000|39=1|40=2|44=50.0000|528=A|48=IS0000013464|54=2|55=37744|59=0|60=20110427-15:15:58|75=20110427|150=1|151=350000|9140=Y|5815=23|109=Y48|382=1|375=Y48|9882=X|1003=000007499|10=245|
8=FIX.4.2|9=0350|35=8|34=80|52=20110427-15:15:58|49=INORD|50=S|56=Y48|57=TST814014|128=Y48|129=Y4801|6=50.0000|11=15056900000035|14=10000|15=ISK|17=B7499|18=N|20=0|31=50.0000|32=10000|37=7915|38=10000|39=2|40=2|44=50.0000|528=A|48=IS0000013464|54=1|55=37744|59=0|60=20110427-15:15:58|75=20110427|150=2|151=0|9140=Y|5815=23|109=Y48|382=1|375=Y48|9882=X|1003=000007499|10=235|
8=FIX.4.2|9=0336|35=8|34=81|52=20110427-15:15:58|49=INORD|50=S|56=Y48|57=Y4802|6=50.5862|11=KODIKXB1NXMN7|14=580000|15=ISK|17=S7500|18=N|20=0|31=50.0000|32=100000|37=30013|38=830000|39=1|40=2|44=50.0000|528=A|48=IS0000013464|54=2|55=37744|59=0|60=20110427-15:15:58|75=20110427|150=1|151=250000|9140=Y|5815=23|109=Y48|382=1|375=Y48|9882=X|1003=000007500|10=000|
8=FIX.4.2|9=0336|35=8|34=82|52=20110427-15:15:58|49=INORD|50=S|56=Y48|57=Y4802|6=50.5000|11=KODIKXB1NXMN7|14=680000|15=ISK|17=S7501|18=N|20=0|31=50.0000|32=100000|37=30013|38=830000|39=1|40=2|44=50.0000|528=A|48=IS0000013464|54=2|55=37744|59=0|60=20110427-15:15:58|75=20110427|150=1|151=150000|9140=Y|5815=23|109=Y48|382=1|375=Y48|9882=X|1003=000007501|10=243|
8=FIX.4.2|9=0353|35=8|34=83|52=20110427-15:15:58|49=INORD|50=S|56=Y48|57=TST814014|128=Y48|129=Y4801|6=50.0000|11=15056900000037|14=100000|15=ISK|17=B7501|18=N|20=0|31=50.0000|32=100000|37=8041|38=100000|39=2|40=2|44=50.0000|528=A|48=IS0000013464|54=1|55=37744|59=0|60=20110427-15:15:58|75=20110427|150=2|151=0|9140=Y|5815=23|109=Y48|382=1|375=Y48|9882=X|1003=000007501|10=090|
8=FIX.4.2|9=0335|35=8|34=84|52=20110427-15:15:58|49=INORD|50=S|56=Y48|57=Y4802|6=50.4358|11=KODIKXB1NXMN7|14=780000|15=ISK|17=S7502|18=N|20=0|31=50.0000|32=100000|37=30013|38=830000|39=1|40=2|44=50.0000|528=A|48=IS0000013464|54=2|55=37744|59=0|60=20110427-15:15:58|75=20110427|150=1|151=50000|9140=Y|5815=23|109=Y48|382=1|375=Y48|9882=X|1003=000007502|10=213|
8=FIX.4.2|9=0334|35=8|34=85|52=20110427-15:15:58|49=INORD|50=S|56=Y48|57=Y4802|6=50.4303|11=KODIKXB1NXMN7|14=790000|15=ISK|17=S7503|18=N|20=0|31=50.0000|32=10000|37=30013|38=830000|39=1|40=2|44=50.0000|528=A|48=IS0000013464|54=2|55=37744|59=0|60=20110427-15:15:58|75=20110427|150=1|151=40000|9140=Y|5815=23|109=Y48|382=1|375=Y48|9882=X|1003=000007503|10=157|
8=FIX.4.2|9=0334|35=8|34=86|52=20110427-15:15:58|49=INORD|50=S|56=Y48|57=Y4802|6=50.4250|11=KODIKXB1NXMN7|14=800000|15=ISK|17=S7504|18=N|20=0|31=50.0000|32=10000|37=30013|38=830000|39=1|40=2|44=50.0000|528=A|48=IS0000013464|54=2|55=37744|59=0|60=20110427-15:15:58|75=20110427|150=1|151=30000|9140=Y|5815=23|109=Y48|382=1|375=Y48|9882=X|1003=000007504|10=152|
8=FIX.4.2|9=0334|35=8|34=87|52=20110427-15:15:58|49=INORD|50=S|56=Y48|57=Y4802|6=50.4197|11=KODIKXB1NXMN7|14=810000|15=ISK|17=S7505|18=N|20=0|31=50.0000|32=10000|37=30013|38=830000|39=1|40=2|44=50.0000|528=A|48=IS0000013464|54=2|55=37744|59=0|60=20110427-15:15:58|75=20110427|150=1|151=20000|9140=Y|5815=23|109=Y48|382=1|375=Y48|9882=X|1003=000007505|10=165|
8=FIX.4.2|9=0334|35=8|34=88|52=20110427-15:15:58|49=INORD|50=S|56=Y48|57=Y4802|6=50.4146|11=KODIKXB1NXMN7|14=820000|15=ISK|17=S7506|18=N|20=0|31=50.0000|32=10000|37=30013|38=830000|39=1|40=2|44=50.0000|528=A|48=IS0000013464|54=2|55=37744|59=0|60=20110427-15:15:58|75=20110427|150=1|151=10000|9140=Y|5815=23|109=Y48|382=1|375=Y48|9882=X|1003=000007506|10=162|
8=FIX.4.2|9=0350|35=8|34=89|52=20110427-15:15:58|49=INORD|50=S|56=Y48|57=TST814014|128=Y48|129=Y4801|6=50.0000|11=15056900000052|14=10000|15=ISK|17=B7506|18=N|20=0|31=50.0000|32=10000|37=9725|38=10000|39=2|40=2|44=50.0000|528=A|48=IS0000013464|54=1|55=37744|59=0|60=20110427-15:15:58|75=20110427|150=2|151=0|9140=Y|5815=23|109=Y48|382=1|375=Y48|9882=X|1003=000007506|10=222|
8=FIX.4.2|9=0330|35=8|34=90|52=20110427-15:15:58|49=INORD|50=S|56=Y48|57=Y4802|6=50.4096|11=KODIKXB1NXMN7|14=830000|15=ISK|17=S7507|18=N|20=0|31=50.0000|32=10000|37=30013|38=830000|39=2|40=2|44=50.0000|528=A|48=IS0000013464|54=2|55=37744|59=0|60=20110427-15:15:58|75=20110427|150=2|151=0|9140=Y|5815=23|109=Y48|382=1|375=Y48|9882=X|1003=000007507|10=223|
8=FIX.4.2|9=0350|35=8|34=91|52=20110427-15:15:58|49=INORD|50=S|56=Y48|57=TST814014|128=Y48|129=Y4801|6=50.0000|11=15056900000053|14=10000|15=ISK|17=B7507|18=N|20=0|31=50.0000|32=10000|37=9729|38=10000|39=2|40=2|44=50.0000|528=A|48=IS0000013464|54=1|55=37744|59=0|60=20110427-15:15:58|75=20110427|150=2|151=0|9140=Y|5815=23|109=Y48|382=1|375=Y48|9882=X|1003=000007507|10=222|
8=FIX.4.2|9=0274|35=8|34=92|52=20110427-15:16:44|49=INORD|50=S|56=Y48|57=Y4802|6=0.0|11=KOD8DI8O5GDNK|14=0|15=ISK|17=GPCFD1-31334|18=N|20=0|37=30019|38=1000|39=0|40=2|44=55.0000|528=P|48=IS0000000388|54=2|55=5482|59=0|60=20110427-15:16:44|150=0|151=1000|9140=Y|5815=23|109=Y48|529=5|76=BOOK|10=190|
8=FIX.4.2|9=0163|35=8|34=93|52=20110427-15:16:44|49=INORD|50=S|56=Y48|57=Y4802|6=0.0|11=KOD8DI8O5GDNK|14=0|17=0|20=0|37=30019|39=0|54=2|55=5482|150=D|151=0|109=Y48|378=8|198=21422|10=213|
8=FIX.4.2|9=0274|35=8|34=94|52=20110427-15:16:44|49=INORD|50=S|56=Y48|57=Y4802|6=0.0|11=KODM45DERCHVP|14=0|15=ISK|17=GPCFD1-31336|18=N|20=0|37=30021|38=1000|39=0|40=2|44=51.0000|528=P|48=IS0000000388|54=1|55=5482|59=0|60=20110427-15:16:44|150=0|151=1000|9140=Y|5815=23|109=Y48|529=5|76=BOOK|10=211|
8=FIX.4.2|9=0163|35=8|34=95|52=20110427-15:16:44|49=INORD|50=S|56=Y48|57=Y4802|6=0.0|11=KODM45DERCHVP|14=0|17=0|20=0|37=30021|39=0|54=1|55=5482|150=D|151=0|109=Y48|378=8|198=21423|10=237|
8=FIX.4.2|9=51|35=0|34=6|49=Y48|52=20110427-15:16:22.702|56=INORD|10=017|
8=FIX.4.2|9=0048|35=0|34=96|52=20110427-15:16:54|49=INORD|56=Y48|10=238|
8=FIX.4.2|9=51|35=0|34=7|49=Y48|52=20110427-15:17:22.794|56=INORD|10=030|
8=FIX.4.2|9=0048|35=0|34=97|52=20110427-15:17:54|49=INORD|56=Y48|10=240|
8=FIX.4.2|9=69|35=A|34=1|49=Y48|52=20110427-15:34:17.325|56=INORD|98=0|108=60|141=Y|10=116|
8=FIX.4.2|9=0065|35=A|34=1|52=20110427-15:34:49|49=INORD|56=Y48|141=Y|98=0|108=60|10=013|
8=FIX.4.2|9=0268|35=8|34=2|52=20110427-15:35:00|49=INORD|50=S|56=Y48|57=Y4801|6=0.0|11=KODTFKU6TM5HR|14=0|15=ISK|17=GPCFD1-31568|18=N|20=0|37=30182|38=1000|39=0|40=2|44=50.0000|528=A|48=IS0000013464|54=1|55=37744|59=0|60=20110427-15:35:00|150=0|151=1000|9140=Y|5815=23|109=Y48|76=BOOK|10=203|
8=FIX.4.2|9=0163|35=8|34=3|52=20110427-15:35:00|49=INORD|50=S|56=Y48|57=Y4801|6=0.0|11=KODTFKU6TM5HR|14=0|17=0|20=0|37=30182|39=0|54=1|55=37744|150=D|151=0|109=Y48|378=8|198=21507|10=009|
8=FIX.4.2|9=0268|35=8|34=4|52=20110427-15:35:09|49=INORD|50=S|56=Y48|57=Y4801|6=0.0|11=KODHX80RL8E4W|14=0|15=ISK|17=GPCFD1-31570|18=N|20=0|37=30184|38=1000|39=0|40=2|44=50.0000|528=A|48=IS0000013464|54=1|55=37744|59=0|60=20110427-15:35:09|150=0|151=1000|9140=Y|5815=23|109=Y48|76=BOOK|10=168|
8=FIX.4.2|9=0163|35=8|34=5|52=20110427-15:35:09|49=INORD|50=S|56=Y48|57=Y4801|6=0.0|11=KODHX80RL8E4W|14=0|17=0|20=0|37=30184|39=0|54=1|55=37744|150=D|151=0|109=Y48|378=8|198=21508|10=229|
8=FIX.4.2|9=69|35=A|34=1|49=Y48|52=20110427-15:36:12.060|56=INORD|98=0|108=60|141=Y|10=109|
8=FIX.4.2|9=0065|35=A|34=1|52=20110427-15:36:44|49=INORD|56=Y48|141=Y|98=0|108=60|10=010|
8=FIX.4.2|9=0268|35=8|34=2|52=20110427-15:37:10|49=INORD|50=S|56=Y48|57=Y4801|6=0.0|11=KODGLEKR2YANK|14=0|15=ISK|17=GPCFD1-31583|18=N|20=0|37=30196|38=1000|39=0|40=2|44=50.0000|528=A|48=IS0000013464|54=1|55=37744|59=0|60=20110427-15:37:10|150=0|151=1000|9140=Y|5815=23|109=Y48|76=BOOK|10=205|
8=FIX.4.2|9=0163|35=8|34=3|52=20110427-15:37:10|49=INORD|50=S|56=Y48|57=Y4801|6=0.0|11=KODGLEKR2YANK|14=0|17=0|20=0|37=30196|39=0|54=1|55=37744|150=D|151=0|109=Y48|378=8|198=21514|10=009|
8=FIX.4.2|9=0268|35=8|34=4|52=20110427-15:37:13|49=INORD|50=S|56=Y48|57=Y4801|6=0.0|11=KOD35RCIIYRFK|14=0|15=ISK|17=GPCFD1-31585|18=N|20=0|37=30198|38=1000|39=0|40=2|44=50.0000|528=A|48=IS0000013464|54=1|55=37744|59=0|60=20110427-15:37:13|150=0|151=1000|9140=Y|5815=23|109=Y48|76=BOOK|10=202|
8=FIX.4.2|9=0163|35=8|34=5|52=20110427-15:37:13|49=INORD|50=S|56=Y48|57=Y4801|6=0.0|11=KOD35RCIIYRFK|14=0|17=0|20=0|37=30198|39=0|54=1|55=37744|150=D|151=0|109=Y48|378=8|198=21515|10=002|
8=FIX.4.2|9=0268|35=8|34=6|52=20110427-15:37:15|49=INORD|50=S|56=Y48|57=Y4801|6=0.0|11=KODIK26YLUFDP|14=0|15=ISK|17=GPCFD1-31587|18=N|20=0|37=30200|38=1000|39=0|40=2|44=50.0000|528=A|48=IS0000013464|54=1|55=37744|59=0|60=20110427-15:37:15|150=0|151=1000|9140=Y|5815=23|109=Y48|76=BOOK|10=199|
8=FIX.4.2|9=0163|35=8|34=7|52=20110427-15:37:15|49=INORD|50=S|56=Y48|57=Y4801|6=0.0|11=KODIK26YLUFDP|14=0|17=0|20=0|37=30200|39=0|54=1|55=37744|150=D|151=0|109=Y48|378=8|198=21516|10=252|
8=FIX.4.2|9=0268|35=8|34=8|52=20110427-15:37:16|49=INORD|50=S|56=Y48|57=Y4801|6=0.0|11=KODRTXOP2WCDM|14=0|15=ISK|17=GPCFD1-31589|18=N|20=0|37=30202|38=1000|39=0|40=2|44=50.0000|528=A|48=IS0000013464|54=1|55=37744|59=0|60=20110427-15:37:16|150=0|151=1000|9140=Y|5815=23|109=Y48|76=BOOK|10=249|
8=FIX.4.2|9=0163|35=8|34=9|52=20110427-15:37:16|49=INORD|50=S|56=Y48|57=Y4801|6=0.0|11=KODRTXOP2WCDM|14=0|17=0|20=0|37=30202|39=0|54=1|55=37744|150=D|151=0|109=Y48|378=8|198=21517|10=044|
8=FIX.4.2|9=0269|35=8|34=10|52=20110427-15:37:16|49=INORD|50=S|56=Y48|57=Y4801|6=0.0|11=KODTVVKB8INDS|14=0|15=ISK|17=GPCFD1-31591|18=N|20=0|37=30204|38=1000|39=0|40=2|44=50.0000|528=A|48=IS0000013464|54=1|55=37744|59=0|60=20110427-15:37:16|150=0|151=1000|9140=Y|5815=23|109=Y48|76=BOOK|10=023|
8=FIX.4.2|9=0164|35=8|34=11|52=20110427-15:37:16|49=INORD|50=S|56=Y48|57=Y4801|6=0.0|11=KODTVVKB8INDS|14=0|17=0|20=0|37=30204|39=0|54=1|55=37744|150=D|151=0|109=Y48|378=8|198=21518|10=082|
8=FIX.4.2|9=0269|35=8|34=12|52=20110427-15:37:17|49=INORD|50=S|56=Y48|57=Y4801|6=0.0|11=KODMNOJIGGILD|14=0|15=ISK|17=GPCFD1-31593|18=N|20=0|37=30206|38=1000|39=0|40=2|44=50.0000|528=A|48=IS0000013464|54=1|55=37744|59=0|60=20110427-15:37:17|150=0|151=1000|9140=Y|5815=23|109=Y48|76=BOOK|10=016|
8=FIX.4.2|9=0164|35=8|34=13|52=20110427-15:37:17|49=INORD|50=S|56=Y48|57=Y4801|6=0.0|11=KODMNOJIGGILD|14=0|17=0|20=0|37=30206|39=0|54=1|55=37744|150=D|151=0|109=Y48|378=8|198=21519|10=073|
8=FIX.4.2|9=0269|35=8|34=14|52=20110427-15:37:17|49=INORD|50=S|56=Y48|57=Y4801|6=0.0|11=KODIEAVBCRAJQ|14=0|15=ISK|17=GPCFD1-31595|18=N|20=0|37=30208|38=1000|39=0|40=2|44=50.0000|528=A|48=IS0000013464|54=1|55=37744|59=0|60=20110427-15:37:17|150=0|151=1000|9140=Y|5815=23|109=Y48|76=BOOK|10=010|
8=FIX.4.2|9=0164|35=8|34=15|52=20110427-15:37:17|49=INORD|50=S|56=Y48|57=Y4801|6=0.0|11=KODIEAVBCRAJQ|14=0|17=0|20=0|37=30208|39=0|54=1|55=37744|150=D|151=0|109=Y48|378=8|198=21520|10=057|
8=FIX.4.2|9=0269|35=8|34=16|52=20110427-15:37:17|49=INORD|50=S|56=Y48|57=Y4801|6=0.0|11=KODRDQO00V0NO|14=0|15=ISK|17=GPCFD1-31597|18=N|20=0|37=30210|38=1000|39=0|40=2|44=50.0000|528=A|48=IS0000013464|54=1|55=37744|59=0|60=20110427-15:37:17|150=0|151=1000|9140=Y|5815=23|109=Y48|76=BOOK|10=232|
8=FIX.4.2|9=0164|35=8|34=17|52=20110427-15:37:17|49=INORD|50=S|56=Y48|57=Y4801|6=0.0|11=KODRDQO00V0NO|14=0|17=0|20=0|37=30210|39=0|54=1|55=37744|150=D|151=0|109=Y48|378=8|198=21521|10=022|
8=FIX.4.2|9=0269|35=8|34=18|52=20110427-15:37:17|49=INORD|50=S|56=Y48|57=Y4801|6=0.0|11=KODACPYUTIFX6|14=0|15=ISK|17=GPCFD1-31599|18=N|20=0|37=30212|38=1000|39=0|40=2|44=50.0000|528=A|48=IS0000013464|54=1|55=37744|59=0|60=20110427-15:37:17|150=0|151=1000|9140=Y|5815=23|109=Y48|76=BOOK|10=040|
8=FIX.4.2|9=0164|35=8|34=19|52=20110427-15:37:17|49=INORD|50=S|56=Y48|57=Y4801|6=0.0|11=KODACPYUTIFX6|14=0|17=0|20=0|37=30212|39=0|54=1|55=37744|150=D|151=0|109=Y48|378=8|198=21522|10=085|
8=FIX.4.2|9=0269|35=8|34=20|52=20110427-15:37:18|49=INORD|50=S|56=Y48|57=Y4801|6=0.0|11=KODKTVXQJWO8G|14=0|15=ISK|17=GPCFD1-31601|18=N|20=0|37=30214|38=1000|39=0|40=2|44=50.0000|528=A|48=IS0000013464|54=1|55=37744|59=0|60=20110427-15:37:18|150=0|151=1000|9140=Y|5815=23|109=Y48|76=BOOK|10=047|
8=FIX.4.2|9=0164|35=8|34=21|52=20110427-15:37:18|49=INORD|50=S|56=Y48|57=Y4801|6=0.0|11=KODKTVXQJWO8G|14=0|17=0|20=0|37=30214|39=0|54=1|55=37744|150=D|151=0|109=Y48|378=8|198=21523|10=108|
8=FIX.4.2|9=0269|35=8|34=22|52=20110427-15:37:18|49=INORD|50=S|56=Y48|57=Y4801|6=0.0|11=KOD13J1IATFCH|14=0|15=ISK|17=GPCFD1-31603|18=N|20=0|37=30216|38=1000|39=0|40=2|44=50.0000|528=A|48=IS0000013464|54=1|55=37744|59=0|60=20110427-15:37:18|150=0|151=1000|9140=Y|5815=23|109=Y48|76=BOOK|10=182|
8=FIX.4.2|9=0164|35=8|34=23|52=20110427-15:37:18|49=INORD|50=S|56=Y48|57=Y4801|6=0.0|11=KOD13J1IATFCH|14=0|17=0|20=0|37=30216|39=0|54=1|55=37744|150=D|151=0|109=Y48|378=8|198=21524|10=242|
8=FIX.4.2|9=0269|35=8|34=24|52=20110427-15:37:18|49=INORD|50=S|56=Y48|57=Y4801|6=0.0|11=KODHNWTCJUUBG|14=0|15=ISK|17=GPCFD1-31605|18=N|20=0|37=30218|38=1000|39=0|40=2|44=50.0000|528=A|48=IS0000013464|54=1|55=37744|59=0|60=20110427-15:37:18|150=0|151=1000|9140=Y|5815=23|109=Y48|76=BOOK|10=047|
8=FIX.4.2|9=0164|35=8|34=25|52=20110427-15:37:18|49=INORD|50=S|56=Y48|57=Y4801|6=0.0|11=KODHNWTCJUUBG|14=0|17=0|20=0|37=30218|39=0|54=1|55=37744|150=D|151=0|109=Y48|378=8|198=21525|10=106|
8=FIX.4.2|9=0269|35=8|34=26|52=20110427-15:37:18|49=INORD|50=S|56=Y48|57=Y4801|6=0.0|11=KODHH61F2DCPD|14=0|15=ISK|17=GPCFD1-31607|18=N|20=0|37=30220|38=1000|39=0|40=2|44=50.0000|528=A|48=IS0000013464|54=1|55=37744|59=0|60=20110427-15:37:18|150=0|151=1000|9140=Y|5815=23|109=Y48|76=BOOK|10=181|
8=FIX.4.2|9=0164|35=8|34=27|52=20110427-15:37:18|49=INORD|50=S|56=Y48|57=Y4801|6=0.0|11=KODHH61F2DCPD|14=0|17=0|20=0|37=30220|39=0|54=1|55=37744|150=D|151=0|109=Y48|378=8|198=21526|10=239|
8=FIX.4.2|9=0269|35=8|34=28|52=20110427-15:37:18|49=INORD|50=S|56=Y48|57=Y4801|6=0.0|11=KODT3TFI8XBIX|14=0|15=ISK|17=GPCFD1-31609|18=N|20=0|37=30222|38=1000|39=0|40=2|44=50.0000|528=A|48=IS0000013464|54=1|55=37744|59=0|60=20110427-15:37:18|150=0|151=1000|9140=Y|5815=23|109=Y48|76=BOOK|10=014|
8=FIX.4.2|9=0164|35=8|34=29|52=20110427-15:37:18|49=INORD|50=S|56=Y48|57=Y4801|6=0.0|11=KODT3TFI8XBIX|14=0|17=0|20=0|37=30222|39=0|54=1|55=37744|150=D|151=0|109=Y48|378=8|198=21527|10=071|
8=FIX.4.2|9=0269|35=8|34=30|52=20110427-15:37:19|49=INORD|50=S|56=Y48|57=Y4801|6=0.0|11=KODKQETVSWDFV|14=0|15=ISK|17=GPCFD1-31611|18=N|20=0|37=30224|38=1000|39=0|40=2|44=50.0000|528=A|48=IS0000013464|54=1|55=37744|59=0|60=20110427-15:37:19|150=0|151=1000|9140=Y|5815=23|109=Y48|76=BOOK|10=060|
8=FIX.4.2|9=0164|35=8|34=31|52=20110427-15:37:19|49=INORD|50=S|56=Y48|57=Y4801|6=0.0|11=KODKQETVSWDFV|14=0|17=0|20=0|37=30224|39=0|54=1|55=37744|150=D|151=0|109=Y48|378=8|198=21528|10=124|
8=FIX.4.2|9=0269|35=8|34=32|52=20110427-15:37:19|49=INORD|50=S|56=Y48|57=Y4801|6=0.0|11=KODQUKHEB7HGX|14=0|15=ISK|17=GPCFD1-31613|18=N|20=0|37=30226|38=1000|39=0|40=2|44=50.0000|528=A|48=IS0000013464|54=1|55=37744|59=0|60=20110427-15:37:19|150=0|151=1000|9140=Y|5815=23|109=Y48|76=BOOK|10=011|
8=FIX.4.2|9=0164|35=8|34=33|52=20110427-15:37:19|49=INORD|50=S|56=Y48|57=Y4801|6=0.0|11=KODQUKHEB7HGX|14=0|17=0|20=0|37=30226|39=0|54=1|55=37744|150=D|151=0|109=Y48|378=8|198=21529|10=074|
8=FIX.4.2|9=0269|35=8|34=34|52=20110427-15:37:19|49=INORD|50=S|56=Y48|57=Y4801|6=0.0|11=KODF4L8RT3YXV|14=0|15=ISK|17=GPCFD1-31615|18=N|20=0|37=30228|38=1000|39=0|40=2|44=50.0000|528=A|48=IS0000013464|54=1|55=37744|59=0|60=20110427-15:37:19|150=0|151=1000|9140=Y|5815=23|109=Y48|76=BOOK|10=017|
8=FIX.4.2|9=0164|35=8|34=35|52=20110427-15:37:19|49=INORD|50=S|56=Y48|57=Y4801|6=0.0|11=KODF4L8RT3YXV|14=0|17=0|20=0|37=30228|39=0|54=1|55=37744|150=D|151=0|109=Y48|378=8|198=21530|10=070|
8=FIX.4.2|9=0269|35=8|34=36|52=20110427-15:37:19|49=INORD|50=S|56=Y48|57=Y4801|6=0.0|11=KODLHH6NQ5GT4|14=0|15=ISK|17=GPCFD1-31617|18=N|20=0|37=30230|38=1000|39=0|40=2|44=50.0000|528=A|48=IS0000013464|54=1|55=37744|59=0|60=20110427-15:37:19|150=0|151=1000|9140=Y|5815=23|109=Y48|76=BOOK|10=229|
8=FIX.4.2|9=0164|35=8|34=37|52=20110427-15:37:19|49=INORD|50=S|56=Y48|57=Y4801|6=0.0|11=KODLHH6NQ5GT4|14=0|17=0|20=0|37=30230|39=0|54=1|55=37744|150=D|151=0|109=Y48|378=8|198=21531|10=025|
8=FIX.4.2|9=0269|35=8|34=38|52=20110427-15:37:19|49=INORD|50=S|56=Y48|57=Y4801|6=0.0|11=KODHTATIKWL3Y|14=0|15=ISK|17=GPCFD1-31619|18=N|20=0|37=30232|38=1000|39=0|40=2|44=50.0000|528=A|48=IS0000013464|54=1|55=37744|59=0|60=20110427-15:37:19|150=0|151=1000|9140=Y|5815=23|109=Y48|76=BOOK|10=042|
8=FIX.4.2|9=0164|35=8|34=39|52=20110427-15:37:19|49=INORD|50=S|56=Y48|57=Y4801|6=0.0|11=KODHTATIKWL3Y|14=0|17=0|20=0|37=30232|39=0|54=1|55=37744|150=D|151=0|109=Y48|378=8|198=21532|10=093|
8=FIX.4.2|9=0269|35=8|34=40|52=20110427-15:37:20|49=INORD|50=S|56=Y48|57=Y4801|6=0.0|11=KODJHMJ2I4BBU|14=0|15=ISK|17=GPCFD1-31621|18=N|20=0|37=30234|38=1000|39=0|40=2|44=50.0000|528=A|48=IS0000013464|54=1|55=37744|59=0|60=20110427-15:37:20|150=0|151=1000|9140=Y|5815=23|109=Y48|76=BOOK|10=203|
8=FIX.4.2|9=0164|35=8|34=41|52=20110427-15:37:20|49=INORD|50=S|56=Y48|57=Y4801|6=0.0|11=KODJHMJ2I4BBU|14=0|17=0|20=0|37=30234|39=0|54=1|55=37744|150=D|151=0|109=Y48|378=8|198=21533|10=014|
8=FIX.4.2|9=0269|35=8|34=42|52=20110427-15:37:20|49=INORD|50=S|56=Y48|57=Y4801|6=0.0|11=KODJ2BBXJUFNG|14=0|15=ISK|17=GPCFD1-31623|18=N|20=0|37=30236|38=1000|39=0|40=2|44=50.0000|528=A|48=IS0000013464|54=1|55=37744|59=0|60=20110427-15:37:20|150=0|151=1000|9140=Y|5815=23|109=Y48|76=BOOK|10=242|
8=FIX.4.2|9=0164|35=8|34=43|52=20110427-15:37:20|49=INORD|50=S|56=Y48|57=Y4801|6=0.0|11=KODJ2BBXJUFNG|14=0|17=0|20=0|37=30236|39=0|54=1|55=37744|150=D|151=0|109=Y48|378=8|198=21534|10=052|
8=FIX.4.2|9=0269|35=8|34=44|52=20110427-15:37:20|49=INORD|50=S|56=Y48|57=Y4801|6=0.0|11=KOD3LQKX8ND7R|14=0|15=ISK|17=GPCFD1-31625|18=N|20=0|37=30238|38=1000|39=0|40=2|44=50.0000|528=A|48=IS0000013464|54=1|55=37744|59=0|60=20110427-15:37:20|150=0|151=1000|9140=Y|5815=23|109=Y48|76=BOOK|10=236|
8=FIX.4.2|9=0164|35=8|34=45|52=20110427-15:37:20|49=INORD|50=S|56=Y48|57=Y4801|6=0.0|11=KOD3LQKX8ND7R|14=0|17=0|20=0|37=30238|39=0|54=1|55=37744|150=D|151=0|109=Y48|378=8|198=21535|10=045|
8=FIX.4.2|9=0269|35=8|34=46|52=20110427-15:37:20|49=INORD|50=S|56=Y48|57=Y4801|6=0.0|11=KODQSC5NOJSGC|14=0|15=ISK|17=GPCFD1-31627|18=N|20=0|37=30240|38=1000|39=0|40=2|44=50.0000|528=A|48=IS0000013464|54=1|55=37744|59=0|60=20110427-15:37:20|150=0|151=1000|9140=Y|5815=23|109=Y48|76=BOOK|10=003|
8=FIX.4.2|9=0164|35=8|34=47|52=20110427-15:37:20|49=INORD|50=S|56=Y48|57=Y4801|6=0.0|11=KODQSC5NOJSGC|14=0|17=0|20=0|37=30240|39=0|54=1|55=37744|150=D|151=0|109=Y48|378=8|198=21536|10=067|
8=FIX.4.2|9=0269|35=8|34=48|52=20110427-15:37:20|49=INORD|50=S|56=Y48|57=Y4801|6=0.0|11=KOD6KYWNHAY5S|14=0|15=ISK|17=GPCFD1-31629|18=N|20=0|37=30242|38=1000|39=0|40=2|44=50.0000|528=A|48=IS0000013464|54=1|55=37744|59=0|60=20110427-15:37:20|150=0|151=1000|9140=Y|5815=23|109=Y48|76=BOOK|10=018|
8=FIX.4.2|9=0164|35=8|34=49|52=20110427-15:37:20|49=INORD|50=S|56=Y48|57=Y4801|6=0.0|11=KOD6KYWNHAY5S|14=0|17=0|20=0|37=30242|39=0|54=1|55=37744|150=D|151=0|109=Y48|378=8|198=21537|10=081|
8=FIX.4.2|9=0269|35=8|34=50|52=20110427-15:37:21|49=INORD|50=S|56=Y48|57=Y4801|6=0.0|11=KODMDWHDAPKUL|14=0|15=ISK|17=GPCFD1-31631|18=N|20=0|37=30244|38=1000|39=0|40=2|44=50.0000|528=A|48=IS0000013464|54=1|55=37744|59=0|60=20110427-15:37:21|150=0|151=1000|9140=Y|5815=23|109=Y48|76=BOOK|10=016|
8=FIX.4.2|9=0164|35=8|34=51|52=20110427-15:37:21|49=INORD|50=S|56=Y48|57=Y4801|6=0.0|11=KODMDWHDAPKUL|14=0|17=0|20=0|37=30244|39=0|54=1|55=37744|150=D|151=0|109=Y48|378=8|198=21538|10=086|
8=FIX.4.2|9=0269|35=8|34=52|52=20110427-15:37:21|49=INORD|50=S|56=Y48|57=Y4801|6=0.0|11=KODWPIJ5T3VFH|14=0|15=ISK|17=GPCFD1-31633|18=N|20=0|37=30246|38=1000|39=0|40=2|44=50.0000|528=A|48=IS0000013464|54=1|55=37744|59=0|60=20110427-15:37:21|150=0|151=1000|9140=Y|5815=23|109=Y48|76=BOOK|10=255|
8=FIX.4.2|9=0164|35=8|34=53|52=20110427-15:37:21|49=INORD|50=S|56=Y48|57=Y4801|6=0.0|11=KODWPIJ5T3VFH|14=0|17=0|20=0|37=30246|39=0|54=1|55=37744|150=D|151=0|109=Y48|378=8|198=21539|10=068|
8=FIX.4.2|9=0269|35=8|34=54|52=20110427-15:37:21|49=INORD|50=S|56=Y48|57=Y4801|6=0.0|11=KODOPFIWYQXY6|14=0|15=ISK|17=GPCFD1-31635|18=N|20=0|37=30248|38=1000|39=0|40=2|44=50.0000|528=A|48=IS0000013464|54=1|55=37744|59=0|60=20110427-15:37:21|150=0|151=1000|9140=Y|5815=23|109=Y48|76=BOOK|10=065|
8=FIX.4.2|9=0164|35=8|34=55|52=20110427-15:37:21|49=INORD|50=S|56=Y48|57=Y4801|6=0.0|11=KODOPFIWYQXY6|14=0|17=0|20=0|37=30248|39=0|54=1|55=37744|150=D|151=0|109=Y48|378=8|198=21540|10=124|
8=FIX.4.2|9=0269|35=8|34=56|52=20110427-15:37:21|49=INORD|50=S|56=Y48|57=Y4801|6=0.0|11=KODHIMEERR8LN|14=0|15=ISK|17=GPCFD1-31637|18=N|20=0|37=30250|38=1000|39=0|40=2|44=50.0000|528=A|48=IS0000013464|54=1|55=37744|59=0|60=20110427-15:37:21|150=0|151=1000|9140=Y|5815=23|109=Y48|76=BOOK|10=006|
8=FIX.4.2|9=0164|35=8|34=57|52=20110427-15:37:21|49=INORD|50=S|56=Y48|57=Y4801|6=0.0|11=KODHIMEERR8LN|14=0|17=0|20=0|37=30250|39=0|54=1|55=37744|150=D|151=0|109=Y48|378=8|198=21541|10=064|
8=FIX.4.2|9=0269|35=8|34=58|52=20110427-15:37:21|49=INORD|50=S|56=Y48|57=Y4801|6=0.0|11=KODC2E7XSEX1U|14=0|15=ISK|17=GPCFD1-31639|18=N|20=0|37=30252|38=1000|39=0|40=2|44=50.0000|528=A|48=IS0000013464|54=1|55=37744|59=0|60=20110427-15:37:21|150=0|151=1000|9140=Y|5815=23|109=Y48|76=BOOK|10=237|
8=FIX.4.2|9=0164|35=8|34=59|52=20110427-15:37:21|49=INORD|50=S|56=Y48|57=Y4801|6=0.0|11=KODC2E7XSEX1U|14=0|17=0|20=0|37=30252|39=0|54=1|55=37744|150=D|151=0|109=Y48|378=8|198=21542|10=038|
8=FIX.4.2|9=0269|35=8|34=60|52=20110427-15:37:22|49=INORD|50=S|56=Y48|57=Y4801|6=0.0|11=KODIHJDGOEOPN|14=0|15=ISK|17=GPCFD1-31641|18=N|20=0|37=30254|38=1000|39=0|40=2|44=50.0000|528=A|48=IS0000013464|54=1|55=37744|59=0|60=20110427-15:37:22|150=0|151=1000|9140=Y|5815=23|109=Y48|76=BOOK|10=011|
8=FIX.4.2|9=0164|35=8|34=61|52=20110427-15:37:22|49=INORD|50=S|56=Y48|57=Y4801|6=0.0|11=KODIHJDGOEOPN|14=0|17=0|20=0|37=30254|39=0|54=1|55=37744|150=D|151=0|109=Y48|378=8|198=21543|10=075|
8=FIX.4.2|9=0269|35=8|34=62|52=20110427-15:37:22|49=INORD|50=S|56=Y48|57=Y4801|6=0.0|11=KODQWL56DV2IS|14=0|15=ISK|17=GPCFD1-31643|18=N|20=0|37=30256|38=1000|39=0|40=2|44=50.0000|528=A|48=IS0000013464|54=1|55=37744|59=0|60=20110427-15:37:22|150=0|151=1000|9140=Y|5815=23|109=Y48|76=BOOK|10=241|
8=FIX.4.2|9=0164|35=8|34=63|52=20110427-15:37:22|49=INORD|50=S|56=Y48|57=Y4801|6=0.0|11=KODQWL56DV2IS|14=0|17=0|20=0|37=30256|39=0|54=1|55=37744|150=D|151=0|109=Y48|378=8|198=21544|10=048|
8=FIX.4.2|9=0269|35=8|34=64|52=20110427-15:37:22|49=INORD|50=S|56=Y48|57=Y4801|6=0.0|11=KODSIT7KJ1XP5|14=0|15=ISK|17=GPCFD1-31645|18=N|20=0|37=30258|38=1000|39=0|40=2|44=50.0000|528=A|48=IS0000013464|54=1|55=37744|59=0|60=20110427-15:37:22|150=0|151=1000|9140=Y|5815=23|109=Y48|76=BOOK|10=250|
8=FIX.4.2|9=0164|35=8|34=65|52=20110427-15:37:22|49=INORD|50=S|56=Y48|57=Y4801|6=0.0|11=KODSIT7KJ1XP5|14=0|17=0|20=0|37=30258|39=0|54=1|55=37744|150=D|151=0|109=Y48|378=8|198=21545|10=056|
8=FIX.4.2|9=51|35=0|34=2|49=Y48|52=20110427-15:37:12.485|56=INORD|10=023|
8=FIX.4.2|9=0048|35=0|34=66|52=20110427-15:37:44|49=INORD|56=Y48|10=237|
8=FIX.4.2|9=0325|35=8|34=67|52=20110427-15:37:49|49=INORD|50=S|56=Y48|57=Y4801|6=50.0000|11=KODIK26YLUFDP|14=1000|15=ISK|17=B7532|18=N|20=0|31=50.0000|32=1000|37=30200|38=1000|39=2|40=2|44=50.0000|528=A|48=IS0000013464|54=1|55=37744|59=0|60=20110427-15:37:49|75=20110427|150=2|151=0|9140=Y|5815=23|109=Y48|382=1|375=Y48|9882=X|1003=000007532|10=184|
